:020000040800F2
:1000000028050020650100088D1800083117000838
:100010008918000879020008C11D000800000000CE
:10002000000000000000000000000000F5180008BB
:100030007D02000800000000C9180008F718000839
:100040007F0100087F0100087F0100087F01000890
:100050007F0100087F0100087F0100087F01000880
:100060007F0100087F0100087F0100087F01000870
:100070007F0100087F0100087F0100087F01000860
:100080007F0100087F0100087F0100087F01000850
:100090007F0100087F0100087F0100087F01000840
:1000A0007F0100087F0100087F0100087F01000830
:1000B0007F0100087F0100087F0100087F01000820
:1000C0007F0100087F0100087F0100087F01000810
:1000D0007F0100087F010008A11D0008B11D000874
:1000E0007F0100087F0100087F0100080000000078
:1000F0000000000000000000000000000000000000
:1001000000000000000000007F0100087F010008DF
:100110007F0100087F0100087F0100087F010008BF
:100120007F0100087F0100087F0100087F010008AF
:100130007F01000800000000000000007F010008AF
:100140007F0100087F0100087F0100087F0100088F
:10015000DFF80CD000F07EF800480047811F00084F
:10016000280500200648804706480047FEE7FEE7CE
:10017000FEE7FEE7FEE7FEE7FEE7FEE7FEE7FEE757
:10018000A5190008510100082DE9F05F054600207F
:1001900092469B4688460646814640241BE02846F8
:1001A00041464746224600F020F853465A46C01AB8
:1001B000914110D311461846224600F03CF82D1A02
:1001C00067EB01084F4622460120002100F033F87A
:1001D00017EB00094E41201EA4F10104DFDC484664
:1001E00031462A464346BDE8F09F202A04DB203AE8
:1001F00021FA02F00021704721FA02F3D040C2F147
:100200002002914008431946704730B50B4601461D
:1002100000202022012409E021FA02F59D4205D3A5
:1002200003FA02F5491B04FA02F52844151EA2F14F
:100230000102F1DC30BD202A04DB203A00FA02F191
:10024000002070479140C2F1200320FA03F31943C4
:1002500090407047064C074D06E0E06840F001030F
:1002600094E8070098471034AC42F6D3FFF774FFC8
:10027000582100087821000800BFFEE77047000001
:1002800070B50446002594F82100022803D004200C
:10029000A0630125C1E02068006820F00E002168FD
:1002A00008602068006820F00100216808605C494F
:1002B0002068884252D95A4978392068884201D149
:1002C000012047E0564964392068884201D1102056
:1002D00040E0534950392068884201D1801539E007
:1002E0004F493C392068884201D1801432E04C49A2
:1002F00028392068884202D14FF480302AE04849EA
:1003000014392068884202D14FF4801022E0444919
:100310002068884201D140041CE04249206888429C
:1003200001D1012016E03F4914312068884201D1F3
:1003300010200FE03B4928312068884201D1801508
:1003400008E038493C312068884201D1801401E03E
:100350004FF480303349091F086051E03049783943
:100360002068884201D1012047E02D496439206886
:10037000884201D1102040E0294950392068884244
:1003800001D1801539E026493C392068884201D1E5
:10039000801432E0224928392068884202D14FF483
:1003A00080302AE01E4914392068884202D14FF477
:1003B000801022E01A492068884201D140041CE0E4
:1003C00018492068884201D1012016E015491431EE
:1003D0002068884201D110200FE01249283120689E
:1003E000884201D1801508E00E493C3120688842DE
:1003F00001D1801401E04FF4803009498039486010
:10040000012084F8210000BF002084F8200000BFF4
:10041000606B10B12046616B8847284670BD0000B4
:10042000800002400804024070B5044600F0A4F9C0
:1004300006462546681C10B104480078054400BFF4
:1004400000F09AF9801BA842FAD370BD1800002072
:100450002DE9F847034600240020002584460027A4
:1004600000226EE14FF0010808FA02F4D1F8008092
:1004700008EA0400A0427DD1DFF8D0A2D1F80480C0
:10048000A8EB0A09D0453AD014DCB8F1030F50D0DC
:1004900009DCB8F1000F31D0B8F1010F1CD0B8F170
:1004A000020F49D120E0B8F1110F18D0B8F1120FA6
:1004B00042D11EE0B9F5881F25D006DCB9F5803F92
:1004C00020D0B9F5801F37D11AE0B9F5001F18D038
:1004D000B9F5041F30D117E0D1F80CC02DE0D1F8E8
:1004E0000C8008F1040C28E0D1F80C8008F1080C0D
:1004F00023E0D1F80C8008F10C0C1EE000BF00BF17
:1005000000BF00BF00BF00BFD1F80880B8F1000FE6
:1005100002D14FF0040C0BE0D1F80880B8F1010FC4
:1005200003D14FF0080C1C6102E04FF0080C5C6135
:1005300003E04FF0000C00E000BF00BFFF2801D82F
:10054000984601E003F104084646FF2802D84FEA26
:10055000820803E0A2F108084FEA88084746D6F867
:1005600000804FF00F0909FA07F928EA09080CFA88
:1005700007F900E088E048EA0908C6F80080D1F8E9
:10058000048008F08058B8F1805F7DD100BFDFF8AB
:10059000C081D8F8188048F00108DFF8B491C9F894
:1005A0001880C846D8F8188008F00108CDF80080F7
:1005B00000BF00BF4FEAB9384FEA920958F82950F6
:1005C0004FEA82784FEA18794FF00F0808FA09F8D5
:1005D00025EA0805DFF87C81434502D14FF0000889
:1005E00016E0DFF87481434502D14FF001080FE0B7
:1005F000DFF86881434502D14FF0020808E0DFF8D8
:100600006081434502D14FF0030801E04FF0040838
:100610004FEA82794FEA197908FA09F848EA05059C
:10062000DFF840814FEA920948F82950D1F8048058
:1006300008F48038B8F5803F0AD1DFF82C81D8F86B
:10064000008048EA0008DFF82091C9F8008009E03E
:10065000DFF81481D8F8008028EA0008DFF8089154
:10066000C9F80080D1F8048008F40038B8F5003FDC
:1006700010D1DFF8F48008F10408D8F8008048EAC7
:100680000008DFF8E49000E05AE009F10409C9F835
:1006900000800DE0DFF8D08008F10408D8F8008071
:1006A00028EA0008DFF8C09009F10409C9F80080C1
:1006B000D1F8048008F48018B8F5801F0ED1DFF857
:1006C000A88008F10808D8F8008048EA0008DFF898
:1006D000989009F10809C9F800800DE0DFF88880DA
:1006E00008F10808D8F8008028EA0008DFF87890B8
:1006F00009F10809C9F80080D1F8048008F400184D
:10070000B8F5001F0ED1DFF8608008F10C08D8F8AA
:10071000008048EA0008DFF8509009F10C09C9F898
:1007200000800DE0DFF8408008F10C08D8F8008068
:1007300028EA0008DFF8309009F10C09C9F80080B8
:10074000521C102AFFF48EAEBDE8F887000011108D
:100750000010024000080140000C01400010014060
:100760000014014008000140000401400AB1016189
:1007700001E00B0403617047014800687047000006
:100780001000002003480068034909780844014923
:1007900008607047100000201800002010B50848BD
:1007A000006840F0100006490860032000F0D0F80F
:1007B000002000F007F800F02BF8002010BD00002A
:1007C0000020024070B504460E4800784FF47A715C
:1007D000B1FBF0F00C490968B1FBF0F5284600F0D8
:1007E00010FD08B1012070BD102C07D20022214657
:1007F000501E00F06EF80548046001E00120F2E7A9
:100800000020F0E7180000201C0000201400002049
:1008100008B500BF2648806940F00100244988617E
:100820000846806900F00100009000BF00BF00BFD3
:100830000846C06940F08050C8610846C06900F0B1
:100840008050009000BF00BF032000F081F800221C
:1008500011466FF00B0000F03CF8002211466FF0DB
:100860000A0000F036F8002211466FF0090000F08F
:1008700030F800221146501F00F02BF800221146DC
:10088000101F00F026F800221146901E00F021F8FB
:1008900000221146501E00F01CF800BF05494868B0
:1008A00020F0E06040F00070486000BF08BD00002C
:1008B000001002400000014000BF00F01F020121B3
:1008C00091404209920002F1E022C2F8001100BFFB
:1008D00070472DE9F05F80460D461646002700F070
:1008E000D7FF074639462A46334601F00700C0F1D4
:1008F000070ABAF1040F02D94FF0040A01E0C0F16F
:10090000070AD14600F1040ABAF1070F02D24FF0EC
:10091000000A01E0A0F1030AD4464FF0010A0AFAE6
:1009200009FAAAF1010A0AEA020A0AFA0CFA4FF0D5
:10093000010B0BFA0CFBABF1010B0BEA030B4AEAC0
:100940000B042146404600F0ABFFBDE8F09F0000DD
:1009500000BF00F00702064B19684FF6FF0319406D
:10096000044B0B4343EA0221014B196000BF70475F
:100970000CED00E00000FA0570B504460D460026B7
:100980006248006800F00700A8420ED25F48006885
:1009900020F0070028435D4908600846006800F021
:1009A0000700A84201D0012070BD207800F00200AD
:1009B000022807D15648406820F0F000A16808439B
:1009C00053494860207800F0010000285DD060683D
:1009D000012806D14E48006800F4003090B901208B
:1009E000E2E76068022806D14948006800F000701C
:1009F00040B90120D8E74648006800F0020008B975
:100A00000120D1E74248406820F0030061680843B4
:100A10003F494860FFF7B0FE06466068012810D1E4
:100A200008E0FFF7A9FE801B41F28831884201D916
:100A30000320B9E73648406800F00C000428F0D1E4
:100A400023E06068022810D108E0FFF795FE801BC4
:100A500041F28831884201D90320A5E72C4840683B
:100A600000F00C000828F0D10FE008E0FFF784FE4A
:100A7000801B41F28831884201D9032094E7244841
:100A8000406800F00C000028F0D12048006800F019
:100A90000700A8420ED91D48006820F0070028432F
:100AA0001A4908600846006800F00700A84201D013
:100AB000012079E7207800F00400042807D11448C9
:100AC000406820F4E060E1680843114948602078FC
:100AD00000F00800082808D10D48406820F4605054
:100AE000216940EAC1000A49486000F03DF8084920
:100AF0004968C1F30311074A515CC84006490860C0
:100B00000020FFF75FFE00204EE7000000200240BB
:100B100000100240402100081C000020014800682D
:100B2000704700001C00002000B5FFF7F7FF0449E4
:100B30004968C1F30221034A515CC84000BD00006E
:100B4000001002405021000800B5FFF7E7FF0449FC
:100B50004968C1F3C221034A515CC84000BD00008E
:100B600000100240502100082DE9F04F8BB03CA24C
:100B7000D2E901311068D268CDE908310A920790B4
:100B80003BA3D3E90020D3E9021304AC0BC40392C6
:100B90004FF00009CB46CA46002400200290019085
:100BA00000903748D0F8049009F00C0000284FD08E
:100BB000042802D008284AD102E0324802904AE0D4
:100BC00007A8C9F38341445C09F48030C0B32C48C2
:100BD000C06A00F00F0003A911F800B02848C06AED
:100BE00000F4803008B32648C06AC0F30310401CEC
:100BF00001902348C06AC0F30320801C0090019834
:100C0000A0FB0B5006461F490098A1FB00210023C2
:100C1000A2FB047C01FB04C102FB03112A463346FC
:100C20003846FFF7B1FA824603E016486043B0FB4E
:100C3000FBFA9DF82900A04206D14FEA5A0A03E0C8
:100C4000FFE7114804FB00FACDF808A003E000BF5D
:100C50000E48029000BF00BF02980BB0BDE8F08FB5
:100C6000000004050607080900000000000D000050
:100C70000102030405060708090A0B0C0D0E0F10EC
:100C800000100240001BB70000093D0000127A006E
:100C9000F8B504460025207800F00100002878D03F
:100CA000FD48406800F00C0004280CD0FA48406869
:100CB00000F00C00082811D1F748406800F480309B
:100CC000B0F5803F0AD1F448006800F400300028F5
:100CD0005FD0A06800285CD10120F8BD00BFA068EB
:100CE000B0F5803F06D1EC48006840F48030EA4916
:100CF000086028E0A06858B9E748006820F4803010
:100D0000E54908600846006820F4802008601AE081
:100D1000A068B0F5A02F0BD1DF48006840F4802018
:100D2000DD4908600846006840F4803008600AE049
:100D3000D948006820F48030D74908600846006828
:100D400020F48020086000BFA06888B1FFF714FD80
:100D5000054606E0FFF710FD401B642801D903207B
:100D6000BBE7CD48006800F400300028F2D010E066
:100D7000FFF702FD054606E0FFF7FEFC401B642876
:100D800001D90320A9E7C448006800F40030002816
:100D9000F2D1207800F00200022857D1BE48406806
:100DA00000F00C0050B1BC48406800F00C0008286E
:100DB00018D1B948406800F4803098B9B648006846
:100DC00000F0020020B16069012801D0012084E711
:100DD000B148006820F0F800A16940EAC100AE49BE
:100DE000086033E06069E8B10120AC490860FFF7B2
:100DF000C3FC054606E0FFF7BFFC401B022801D9F3
:100E000003206AE7A448006800F002000028F2D03E
:100E1000A148006820F0F800A16940EAC1009E499D
:100E2000086013E000209D490860FFF7A5FC054617
:100E300006E0FFF7A1FC401B022801D903204CE784
:100E40009548006800F002000028F2D1207800F0F8
:100E5000080008282DD1E069B8B101209049086048
:100E6000FFF78AFC054606E0FFF786FC401B0228D8
:100E700001D9032031E78848406A00F002000028C9
:100E8000F2D0012000F022FD13E000208449086028
:100E9000FFF772FC054606E0FFF76EFC401B0228D8
:100EA00001D9032019E77C48406A00F002000028BD
:100EB000F2D1207800F00400042873D1002676488F
:100EC000C06900F0805070B900BF7348C06940F03D
:100ED00080507149C8610846C06900F08050009098
:100EE00000BF00BF01266F48006800F48070B0B9F1
:100EF0006C48006840F480706A490860FFF73CFC69
:100F0000054606E0FFF738FC401B642801D90320A2
:100F1000E3E66448006800F480700028F2D000BF67
:100F20002069012806D15C48006A40F001005A4956
:100F3000086227E0206958B95748006A20F001008C
:100F4000554908620846006A20F00400086219E06A
:100F5000206905280BD15048006A40F004004E4932
:100F600008620846006A40F0010008620AE04A4848
:100F7000006A20F00100484908620846006A20F033
:100F80000400086200BF2069A0B1FFF7F5FB054629
:100F900009E0FFF7F1FB401B41F28831884202D99A
:100FA00003209AE622E03C48006A00F00200002894
:100FB000EFD012E0FFF7E0FB054608E0FFF7DCFBAF
:100FC000401B41F28831884201D9032085E632482E
:100FD000006A00F002000028F0D1012E05D12E4851
:100FE000C06920F080502C49C86100BFE06AA0B3FE
:100FF0002948406800F48030B0F5803F0ED1264883
:10100000406800F00C00082808D12348C06A00F4AA
:101010008030B0F5803F01D101205EE6E06A022811
:1010200050D11D48006800F0805040B11A48C06A95
:1010300000F0F001606B814201D001204DE60020FC
:1010400016498866FFF798FB054607E0FFF794FB13
:10105000401B642802D903203FE64DE00E4800689B
:1010600000F000600028F1D10B48C06A20F0F000C9
:10107000616B08430849C8620846C06A20F4706082
:10108000216B08430449C862012004498866FFF7C0
:1010900073FB05460FE000000010024000004242D2
:1010A0008004424200700040FFF766FB401B64284A
:1010B00001D9032011E64648006800F000600028CE
:1010C000F2D019E04248C06A20F480304049C8623A
:1010D000002040498866FFF74FFB054606E0FFF712
:1010E0004BFB401B642801D90320F6E53848006813
:1010F00000F000600028F2D1206AE0B33448406874
:1011000000F00C0008285ED0206A022846D100209A
:1011100030490866FFF730FB054606E0FFF72CFB79
:10112000401B022801D90320D7E52948006800F0B8
:1011300000700028F2D1606AB0F5803F0DD12448DC
:10114000C06A616808432249C8620846C06A20F044
:101150000F00E16808431E49C862D4E90901084349
:101160001B49496821F4741108431949486001205A
:101170001849086600E028E0FFF7FEFA054606E099
:10118000FFF7FAFA401B022801D90320A5E5104811
:10119000006800F000700028F2D016E000200D4931
:1011A0000866FFF7E9FA054606E0FFF7E5FA401B97
:1011B000022801D9032090E50548006800F000707E
:1011C0000028F2D101E0012087E5002085E500003C
:1011D0000010024000004242042808D14FF0E021F4
:1011E000096941F004014FF0E022116107E04FF07E
:1011F000E021096921F004014FF0E02211617047FC
:10120000704770B504462546681EB0F1807F01D353
:1012100001200FE0681E4FF0E02148610F214FF0E0
:10122000FF3000F03DFB00204FF0E02188610720F7
:101230000861002070BD10B5FFF7E2FF10BD00008F
:1012400038B504460C492068884214D120680068EB
:10125000C0F3C00078B100BF002000902068006893
:10126000009020684068009000BF00BF0122034941
:10127000204600F065F938BD004800400A00002013
:101280002DE9F0470446206805682068C668206894
:1012900047694FF00008C14605F00F08B8F1000F8C
:1012A0000AD105F0200038B106F0200020B1204618
:1012B00000F0D4FBBDE8F087B8F1000F6DD007F067
:1012C000010018B906F49070002866D005F00100FE
:1012D00030B106F4807018B1E06B40F00100E063BB
:1012E00005F0040030B107F0010018B1E06B40F0E8
:1012F0000200E06305F0020030B107F0010018B110
:10130000E06B40F00400E06305F0080030B107F046
:10131000010018B1E06B40F00800E063E06B68B3D7
:1013200005F0200028B106F0200010B1204600F0A2
:1013300095FB20684069C0F38019E06B00F008005D
:1013400010B9B9F1000F22D0204600F067FB2068E9
:10135000406900F04000B0B12068406920F04000D2
:1013600021684861606B50B11748616B4863606BDE
:10137000FEF786FF10B1606B416B88470CE020469A
:10138000FFF75EFF08E02046FFF75AFF04E0204623
:10139000FFF756FF0020E0638CE705F0800030B1D6
:1013A00006F0800018B1204600F090FC82E705F0BE
:1013B000400030B106F0400018B1204600F03EFB7E
:1013C00078E700BF76E70000091A000810B5044668
:1013D0000CB9012010BDA06900B100E000BF94F875
:1013E000390028B9002084F83800204600F028F899
:1013F000242084F839002068C06820F40050216857
:10140000C860204600F07EFB2068006920F4904010
:10141000216808612068406920F02A00216848613D
:101420002068C06840F400502168C8600020E06374
:10143000202084F8390084F83A000020CAE7000030
:1014400010B586B0044639492068884232D100BFC1
:101450003748C06940F400303549C8610846C06962
:1014600000F40030019000BF00BF20200290022055
:1014700003900320059002A92E48FEF7E9FF4020C3
:10148000029000200390049002A92A48FEF7E0FF92
:1014900000BF2949486840F0E06040F0080048601B
:1014A00000BF002211462620FFF713FA2620FFF77F
:1014B00003FA38E021492068884234D100BF1C4833
:1014C000C06940F480201A49C8610846C06900F428
:1014D0008020019000BF00BF881502900220039079
:1014E0000320059002A91348FEF7B2FF4FF40070E5
:1014F000029000200390049002A90E48FEF7A8FF76
:1015000000BF0D49486820F0300040F0E06040F036
:101510003000486000BF002211462720FFF7D9F9AC
:101520002720FFF7C9F906B010BD000000440040B5
:10153000001002400014014000000140004800403B
:1015400010B5034693F83A0020282FD101B10AB90B
:10155000012010BD00BF93F83800012801D10220FE
:10156000F7E7012083F8380000BF99629A85DA8591
:101570000020D863222083F83A0000BF002083F8BF
:10158000380000BF1868C06840F480701C68E060D4
:101590001868406940F001001C6860611868C06804
:1015A00040F020001C68E0600020D2E70220D0E775
:1015B00010B5044623492068884242D100BF206804
:1015C0000068C0F340100028F9D11F48008800F4DB
:1015D000004088BB1C48008800F4804070B11B4864
:1015E00000780A2803D000201749088024E0164814
:1015F000008840F40040144908801DE0134800783A
:101600000A2806D11048008840F480400E4908801E
:1016100012E00E4800780C490988C1F30D010C4A0C
:10162000505409480088401C074908800846008833
:101630007F2801DD00200880012204490548FFF7CA
:101640007FFF10BD00480040080000200A00002075
:1016500024000020E40000202DE9F84304460D4654
:1016600016461F464FF0000994F8390020285CD137
:1016700005B116B90120BDE8F88300BF94F8380021
:10168000012801D10220F6E7012084F8380000BFCC
:101690000020E063212084F83900FFF76DF88146CF
:1016A000A684E6842BE0E08C401EE084A068B0F5C0
:1016B000805F16D14B46002280212046009700F023
:1016C00039FB08B10320D6E7A846B8F80000C0F3FC
:1016D000080021684860206908B9AD1C0FE06D1C46
:1016E0000DE04B46002280212046009700F022FBAF
:1016F00008B10320BFE715F8010B21684860E08CB2
:101700000028D0D14B46002240212046009700F00F
:1017100011FB08B10320AEE7202084F8390000BF98
:10172000002084F8380000BFA5E70220A3E7704737
:1017300000BFFEE700B585B000BF2448806940F0D7
:101740001000224988610846806900F0100000906E
:1017500000BF00BF00BF0846806940F008008861F4
:101760000846806900F00800009000BF00BF00BF7D
:101770000846806940F0200088610846806900F0D2
:101780002000009000BF00BF00BF0846806940F005
:10179000040088610846806900F00400009000BFE2
:1017A00000BF00224FF400410948FEF7DFFF4FF46D
:1017B000004001900120029000200390022004903C
:1017C00001A90348FEF744FE05B000BD0010024029
:1017D000000C014010B50C480C4908604FF4E13092
:1017E0004860002109488160C16001610C214161AC
:1017F00000218161C161FFF7E9FD18B14D2104A00D
:1018000000F0E0FA10BD000000440040A4000020F9
:101810002E2E2F5372632F75736172742E63000026
:1018200010B51248124908604FF4E13048600021B9
:101830000F488160C16001610C214161002181611B
:10184000C161FFF7C3FD18B160210AA000F0BAFA28
:1018500001220C490648FFF773FE054800684069FD
:1018600040F0010002490968486110BD004800408D
:10187000E40000202E2E2F5372632F757361727453
:101880002E6300000A00002000BFFEE77047000042
:1018900002480068C0F30220704700000CED00E031
:1018A00010B5002807DA0A07140E054A00F00F03E6
:1018B0001B1FD45403E00A07130E024A135410BD31
:1018C00018ED00E000E400E07047000008B50849AA
:1018D0000968C9084FF47A72B1FBF2F141430091F3
:1018E00000BF00BF00994A1E00920029F9D108BD2F
:1018F0001C000020704710B5FEF744FFFFF79BFC6B
:1019000010BD000010B594B00120069000040890AE
:101910000020099001200B900020079002200E90DB
:10192000C1030F91C10410910020119006A8FFF788
:10193000AFF918B1E02116A000F044FA0F20019091
:1019400002200290002003904FF480600490002059
:101950000590022101A8FFF70FF818B1EE210CA0A5
:1019600000F030FAFFF7DAF84FF47A71B0FBF1F4D7
:101970002046FFF746FC0420FFF72EFC0120084913
:10198000086700221146801EFEF7A3FF14B010BDA9
:101990002E2E2F5372632F6D61696E2E630000002F
:1019A000000042421448006840F0010012490860FB
:1019B00008464068114908400F49486008460068D9
:1019C0000F4908400C4908600846006820F4802050
:1019D00008600846406820F4FE0048600846006839
:1019E00020F0A05008604FF47F0088600020C8629B
:1019F000C803044908607047001002400000FFF06F
:101A0000FFFFF6FE08ED00E070B505466C6A0020A9
:101A1000E085E0842046FFF713FC70BD0168C968CB
:101A200021F490710268D1600168496921F00101D7
:101A300002685161202180F83A10704710B50446C1
:101A40002068C06820F040002168C860202084F829
:101A500039002046FFF76BFE002010BD70B504462C
:101A600094F83A0022284AD1A068B0F5805F13D1DB
:101A7000A56A206940B920684068C0F30800288042
:101A8000A06A801CA06219E020684068C0B228806B
:101A9000A06A401CA06211E0206938B92068406843
:101AA000C1B2A26A501CA062117007E020684068B1
:101AB00000F07F01A26A501CA0621170E08D401EF0
:101AC00080B2E085C8B92068C06820F02000216895
:101AD000C8602068C06820F480702168C8602068F1
:101AE000406920F0010021684861202084F83A0014
:101AF0002046FFF75DFD002070BD0020FCE70220BE
:101B0000FAE700002DE9F04104460025206800694D
:101B100020F44050E1680843216808612169A06809
:101B200008436169084305432068C06841F20C61BD
:101B3000884328432168C8602068406920F44070C9
:101B4000A1690843216848615F49206888425CD1E7
:101B5000FEF7FAFF00EBC00101EB0010616889009D
:101B6000B0FBF1F6FEF7F0FF00EBC00101EB001057
:101B700061688900B0FBF1F06421B0FBF1F000EB8B
:101B8000C00101EB0010A6EB8000322101EB001038
:101B90006421B0FBF1F000F0F006FEF7D5FF00EB9A
:101BA000C00101EB001061688900B0FBF1F0642115
:101BB000B0FBF1F006EB0016FEF7C6FF00EBC0012C
:101BC00001EB001061688900B0FBF1F7FEF7BCFF84
:101BD00000EBC00101EB001061688900B0FBF1F07F
:101BE0006421B0FBF1F000EBC00101EB0010A7EBAA
:101BF0008000322101EB00106421B0FBF1F000F015
:101C00000F003044216888605BE0FEF78DFF00EB39
:101C1000C00101EB001061688900B0FBF1F6FEF72E
:101C200083FF00EBC00101EB001061688900B0FB8D
:101C3000F1F06421B0FBF1F000EBC00101EB00100A
:101C4000A6EB8000322101EB00106421B0FBF1F023
:101C500000F0F006FEF768FF00EBC00101EB00109A
:101C600061688900B0FBF1F06421B0FBF1F006EB94
:101C70000016FEF759FF00EBC00101EB0010616890
:101C80008900B0FBF1F7FEF74FFF00EBC00101EB5D
:101C9000001061688900B0FBF1F06421B0FBF1F045
:101CA00000EBC00101EB0010A7EB8000322101EB3B
:101CB00000106421B0FBF1F000F00F003044216807
:101CC0008860BDE8F081000000380140014691F8CD
:101CD000390021282CD18868B0F5805F0FD10A6ABD
:101CE0001088C0F308000B685860086918B9086AC2
:101CF000801C086209E0086A401C086205E00B6A63
:101D0000581C086218780B685860C88C401E80B256
:101D1000C88458B90868C06820F080000B68D86093
:101D20000868C06840F040000B68D8600020704729
:101D30000220FCE72DE9F04104460D46174698467F
:101D4000069E21E0701CF8B12EB1FEF715FDA0EB48
:101D50000800B04218D92068C06820F4D07021680B
:101D6000C8602068406920F0010021684861202097
:101D700084F8390084F83A0000BF002084F8380065
:101D800000BF0320BDE8F081206800682840A84219
:101D900001D1012000E00020B842D3D00020F1E7BB
:101DA00010B50248FFF76CFA10BD0000A400002037
:101DB00010B50248FFF764FA10BD0000E4000020EF
:101DC00000BFFEE700BFFEE70FB4054B10B503A947
:101DD000044A029800F018F810BC5DF814FB0000EB
:101DE0005D1F00082000002002E008C8121F08C183
:101DF000002AFAD170477047002001E001C1121F8C
:101E0000002AFBD1704700002DE9FF4F89B09B46A7
:101E10000446002506E025280BD05A460B9990472A
:101E2000641C6D1C20780028F5D10DB02846BDE853
:101E3000F08F0027B8460122474900E0074314F815
:101E4000013F203B02FA03F00842F7D120782E2808
:101E500019D114F8010F47F004072A280ED06FF0AB
:101E60002F022078A0F1300109290CD808EB880155
:101E700002EB410100EB0108641CF2E70A98641CC4
:101E800050F8048B0A9020780028CED0642808D01F
:101E9000692806D075281ED05A460B9990476D1CAC
:101EA00058E00A994FF00A0901C90A91002802DA9C
:101EB00040422D2102E0390504D52B218DF8201058
:101EC000012103E0F90704D02021F7E78A4608AE94
:101ED0000DE00021FAE70A994FF00A0901C90A91B9
:101EE000F7E74946FEF791F9303106F8011D002861
:101EF000F7D1ADEB060000F12009780701D44FF0CF
:101F00000108C84502DDA8EB090000E0002080467A
:101F1000002706E008A85A46C05D0B9990476D1C43
:101F20007F1C5745F6DB04E030205A460B9990475A
:101F30006D1CB8F10001A8F10108F5DC05E016F808
:101F4000010B5A460B9990476D1CB9F10001A9F19C
:101F50000109F4DC641C65E70928010070B504463A
:101F60000D4605490C704FF47A7301220348FFF7C0
:101F700073FB204670BD00000B000020A400002071
:101F800008B5002500240026FEF708FCFFF7BAFC80
:101F9000FFF7D0FBFFF744FCFFF71CFC0122D10345
:101FA0005D48FEF7E3FB3220FEF73EFA0A2500BF4C
:101FB00006E05A48015D5AA0FFF706FF601CC4B254
:101FC000AC42F6DB64232A4654495648FFF744FBEB
:101FD00000BF544800680068C0F380100028F8D0A3
:101FE000002051490880FEF7C7FB064692E0002218
:101FF0004FF400414848FEF7B9FB0A20FEF714FAF7
:102000004948008800F4004000282FD0FEF7B4FBB8
:102010000646454805780122D1033F48FEF7A6FB56
:102020000A20FEF701FA41A0FFF7CEFE002406E0E9
:102030003A48015D3AA0FFF7C7FE601CC4B2AC424B
:10204000F6DB3DA0FFF7C0FE64232A46334935483E
:10205000FFF702FB00BF334800680068C0F3801040
:102060000028F8D00020304908802BE0FEF784FBE0
:10207000801B42F21071884224D90425FEF77CFBB4
:102080000646002403E025480455601CC4B2AC4257
:10209000F9DB0122D1032048FEF768FB0520FEF79B
:1020A000C3F964232A461D491E48FFF7D5FA00BF2D
:1020B0001C4800680068C0F380100028F8D0002099
:1020C00019490880174800680068C0F3002020B153
:1020D0006FF480701349096808601248006800684E
:1020E000C0F3C000B0B16FF020000E49096808606D
:1020F00000BF002000900B4800680068009009486D
:1021000000684068009000BF00BF01220B490548ED
:10211000FFF716FA6BE70000000C014024000020D6
:1021200020256400E400002008000020526563764A
:1021300020446174613A00000D0A00000A0000208A
:102140000000000000000000010203040607080967
:1021500000000000010203047821000800000020B4
:1021600024000000E81D00089C2100082400002035
:1021700004050000F81D0008000000000000000039
:10218000000000000000000000000000100000003F
:0C2190000100000000A24A040000000052
:04000005080001519D
:00000001FF
