:020000040800F2
:100000000805002045010008451B0008051A0008E6
:10001000411B00088D010008392100080000000084
:10002000000000000000000000000000AD1B000800
:10003000DD01000800000000811B0008AF1B000864
:100040005F0100085F0100085F0100085F01000810
:100050005F0100085F0100085F0100085F01000800
:100060005F0100085F0100085F0100085F010008F0
:1000700091010008A10100085F0100085F0100086C
:100080005F0100085F0100085F0100085F010008D0
:100090005F0100085F0100085F0100085F010008C0
:1000A0005F0100085F0100085F0100085F010008B0
:1000B0005F0100085F0100085F0100085F010008A0
:1000C0005F0100085F0100085F0100085F01000890
:1000D0005F0100085F0100085F010008D1200008EF
:1000E0005F0100085F0100085F0100085F01000870
:1000F0005F0100085F0100085F0100085F01000860
:100100005F0100085F0100085F0100085F0100084F
:100110005F0100085F0100085F0100085F0100083F
:100120005F0100085F0100085F0100085F0100082F
:10013000DFF80CD000F018F80048004761210008F3
:10014000080500200648804706480047FEE7FEE70E
:10015000FEE7FEE7FEE7FEE7FEE7FEE7FEE7FEE777
:10016000511C000831010008064C074D06E0E0680C
:1001700040F0010394E8070098471034AC42F6D3EE
:10018000FFF7DAFF9C220008BC22000800BFFEE750
:1001900010B5024800F026F910BD000098000020BC
:1001A00010B5024800F01EF910BD000054000020F8
:1001B00030B590F840500124AC40C56B6C600468C9
:1001C00063604468102C04D10468A2600468E16094
:1001D00003E00468A1600468E26030BD7047F0B5D8
:1001E00006460C4600250027304602F03BF805463F
:1001F0006D1C2146284602F027F80A202071607104
:10020000F0BD014600200A68126822F00E020B6859
:100210001A600A68126822F001020B681A6091F8ED
:10022000403001229A40CB6B5A60012281F8212094
:1002300000BF002281F8202000BF704770B504463F
:10024000002594F82100022803D00420A063012592
:10025000C1E02068006820F00E0021680860206876
:10026000006820F00100216808605C49206888422D
:1002700052D95A4978392068884201D1012047E093
:10028000564964392068884201D1102040E0534922
:1002900050392068884201D1801539E04F493C39F6
:1002A0002068884201D1801432E04C492839206806
:1002B000884202D14FF480302AE04849143920683E
:1002C000884202D14FF4801022E0444920688842DD
:1002D00001D140041CE042492068884201D101203C
:1002E00016E03F4914312068884201D110200FE008
:1002F0003B4928312068884201D1801508E03849FF
:100300003C312068884201D1801401E04FF48030F4
:100310003349091F086051E0304978392068884224
:1003200001D1012047E02D4964392068884201D17C
:10033000102040E0294950392068884201D18015B9
:1003400039E026493C392068884201D1801432E0E6
:10035000224928392068884202D14FF480302AE0AF
:100360001E4914392068884202D14FF4801022E0DF
:100370001A492068884201D140041CE018492068CD
:10038000884201D1012016E01549143120688842C5
:1003900001D110200FE0124928312068884201D194
:1003A000801508E00E493C312068884201D1801454
:1003B00001E04FF48030094980394860012084F819
:1003C000210000BF002084F8200000BF606B10B146
:1003D0002046616B8847284670BD000080000240BF
:1003E0000804024070B50446E06B056820680668A2
:1003F00094F84010042088402840002875D006F06A
:1004000004000028FAD02068006800F0200028B915
:100410002068006820F0040021680860D549206841
:10042000884254D9D34978392068884201D10420C0
:1004300049E0D04964392068884201D1402042E037
:10044000CC4950392068884201D100153BE0C949A8
:100450003C392068884202D14FF4804033E0C549DE
:1004600028392068884202D14FF480202BE0C1490E
:1004700014392068884202D14FF4800023E0BD493E
:100480002068884201D1C0041DE0BB492068884231
:1004900001D1042017E0B84914312068884201D105
:1004A000402010E0B44928312068884201D100156D
:1004B00009E0B1493C312068884202D14FF48040C4
:1004C00001E04FF48020AC49091F086054E0A949BD
:1004D00078392068884201D104204AE0A54964396E
:1004E0002068884202D1402043E04CE0A1495039C5
:1004F0002068884201D100153BE09E493C392068C4
:10050000884202D14FF4804033E09A49283920686C
:10051000884202D14FF480202BE09649143920689C
:10052000884202D14FF4800023E09249206888423B
:1005300001D1C0041DE090492068884201D1042007
:1005400017E08D4914312068884201D1402010E025
:10055000894928312068884201D1001509E086497F
:100560003C312068884202D14FF4804001E04FF4D2
:100570008020804980394860E06A002802D0204607
:10058000E16A8847F4E094F840100220884028404F
:10059000002871D006F002000028FAD02068006818
:1005A00000F0200040B92068006820F00A002168AF
:1005B0000860012084F821006E492068884254D9DF
:1005C0006C4978392068884201D1022049E06949A4
:1005D00064392068884201D1202042E065495039C1
:1005E0002068884201D140153BE062493C392068CF
:1005F000884202D14FF4005033E05E492839206828
:10060000884202D14FF400302BE05A491439206857
:10061000884202D14FF4001023E0564920688842F6
:1006200001D180041DE054492068884201D1022094
:1006300017E0514914312068884201D1202010E090
:100640004D4928312068884201D1401509E04A49C6
:100650003C312068884202D14FF4005001E04FF451
:1006600000304549091F086054E042497839206844
:10067000884202D102204AE057E03E4964392068AE
:10068000884201D1202042E03A495039206888420E
:1006900001D140153BE037493C392068884202D1FE
:1006A0004FF4005033E0334928392068884202D1A2
:1006B0004FF400302BE02F4914392068884202D1D2
:1006C0004FF4001023E02B492068884201D18004B8
:1006D0001DE029492068884201D1022017E02649FF
:1006E00014312068884201D1202010E022492831AD
:1006F0002068884201D1401509E01F493C3120683B
:10070000884202D14FF4005001E04FF40030194903
:100710008039486000BF002084F8200000BFA06A34
:1007200030B32046A16A884722E094F840100820A0
:1007300088402840E0B106F00800C8B12068006891
:1007400020F00E002168086094F8401001208840D5
:10075000E16B48600120A06384F8210000BF002005
:1007600084F8200000BF206B10B12046216B884721
:1007700070BD0000800002400804024001460022D3
:1007800009B901207047204B086898420BD21F4BD3
:100790000868C01A1423B0FBF3F0800008641B48FB
:1007A0000838C8630AE0184B0868C01A1423B0FB65
:1007B000F3F08000086414480838C863022081F808
:1007C00021000868026843F6F0708243D1E9010312
:1007D0001843CB6818430B6918434B6918438B695E
:1007E0001843CB69184302430868026000208862FE
:1007F000C862086348638863012081F821000020F3
:1008000081F8200000BFBDE7080402400800024054
:100810002DE9F04104460D4616461F464FF00008EC
:1008200000BF94F82000012802D10220BDE8F08129
:10083000012084F8200000BF94F8210001282CD169
:10084000022084F821000020A0632068006820F0C6
:100850000100216808603B46324629462046FFF7E2
:10086000A7FCE06A30B12068006840F00E00216803
:1008700008600BE02068006820F004002168086030
:100880002068006840F00A0021680860206800685D
:1008900040F001002168086006E000BF002084F8F5
:1008A000200000BF4FF002084046BFE770B5044685
:1008B00000F0B6F906462546681C10B104480078D9
:1008C000054400BF00F0ACF9801BA842FAD370BD0C
:1008D0000C0000202DE9F8470246002400200025E6
:1008E0008446002700237BE14FF0010808FA03F457
:1008F000D1F8008008EA0400A0427DD1DFF8ECA224
:10090000D1F80480A8EB0A09D0453AD014DCB8F13C
:10091000030F50D009DCB8F1000F31D0B8F1010F4E
:100920001CD0B8F1020F49D120E0B8F1110F18D056
:10093000B8F1120F42D11EE0B9F5881F25D006DCB0
:10094000B9F5803F20D0B9F5801F37D11AE0B9F54D
:10095000001F18D0B9F5041F30D117E0D1F80CC032
:100960002DE0D1F80C8008F1040C28E0D1F80C80BF
:1009700008F1080C23E0D1F80C8008F10C0C1EE003
:1009800000BF00BF00BF00BF00BF00BFD1F808809C
:10099000B8F1000F02D14FF0040C0BE0D1F8088041
:1009A000B8F1010F03D14FF0080C146102E04FF0D1
:1009B000080C546103E04FF0000C00E000BF00BFE2
:1009C000FF2801D8904601E002F104084646FF28BE
:1009D00002D84FEA830803E0A3F108084FEA880829
:1009E0004746D6F800804FF00F0909FA07F928EAC0
:1009F00009080CFA07F900E07AE048EA0908C6F8A5
:100A00000080D1F8048008F08058B8F1805F6FD181
:100A100000BFDFF8DC81D8F8188048F00108DFF863
:100A2000D091C9F81880C846D8F8188008F0010895
:100A3000CDF8008000BF00BF4FEAB9384FEA9309F4
:100A400058F829504FEA83784FEA18794FF00F0889
:100A500008FA09F825EA0805DFF89881424502D12D
:100A60004FF0000824E0DFF89081424502D14FF0BA
:100A700001081DE0DFF88481424502D14FF00208F1
:100A800016E0DFF87C81424502D14FF003080FE009
:100A9000DFF87081424502D14FF0040808E0DFF82A
:100AA0006881424502D14FF0050801E04FF0060889
:100AB0004FEA83794FEA197908FA09F848EA0505F7
:100AC000DFF848814FEA930948F82950D1F80480AB
:100AD00008F48038B8F5803F0BD1DFF83481D8F8BE
:100AE000008048EA0008DFF82891C9F800800AE091
:100AF00075E0DFF81C81D8F8008028EA0008DFF8EC
:100B00001091C9F80080D1F8048008F40038B8F5D5
:100B1000003F0ED1DFF8F88008F10408D8F8008013
:100B200048EA0008DFF8E89009F10409C9F80080F4
:100B30000DE0DFF8DC8008F10408D8F8008028EA2E
:100B40000008DFF8CC9009F10409C9F80080D1F859
:100B5000048008F48018B8F5801F0ED1DFF8B0804B
:100B600008F10808D8F8008048EA0008DFF8A090EB
:100B700009F10809C9F800800DE0DFF8948008F158
:100B80000808D8F8008028EA0008DFF8849009F106
:100B90000809C9F80080D1F8048008F40018B8F5F5
:100BA000001F0ED1DFF8688008F10C08D8F800802B
:100BB00048EA0008DFF8589009F10C09C9F80080EC
:100BC0000DE0DFF84C8008F10C08D8F8008028EA26
:100BD0000008DFF83C9009F10C09C9F800805B1CA3
:100BE000102BFFF481AEBDE8F88700000000111063
:100BF0000010024000080140000C014000100140BC
:100C00000014014000180140001C01400800014090
:100C1000000401400AB1016101E00B040361704767
:100C20000148006870470000040000200348006885
:100C3000034909780844014908607047040000200E
:100C40000C00002010B50848006840F0100006496C
:100C50000860032000F0D0F8002000F007F800F052
:100C60002BF8002010BD00000020024070B50446A3
:100C70000E4800784FF47A71B1FBF0F00C49096826
:100C8000B1FBF0F5284600F044FC08B1012070BD2E
:100C9000102C07D200222146501E00F06EF80548A5
:100CA000046001E00120F2E70020F0E70C000020E2
:100CB000100000200800002008B500BF2648806909
:100CC00040F00100244988610846806900F0010075
:100CD000009000BF00BF00BF0846C06940F08050D0
:100CE000C8610846C06900F08050009000BF00BF96
:100CF000032000F081F8002211466FF00B0000F095
:100D00003CF8002211466FF00A0000F036F800228D
:100D100011466FF0090000F030F800221146501F14
:100D200000F02BF800221146101F00F026F80022D8
:100D30001146901E00F021F800221146501E00F0CE
:100D40001CF800BF0549486820F0E06040F00070E2
:100D5000486000BF08BD00000010024000000140D4
:100D600000BF00F01F02012191404209920002F1F0
:100D7000E022C2F8001100BF70472DE9F05F804605
:100D80000D461646002700F0DFFE074639462A4684
:100D9000334601F00700C0F1070ABAF1040F02D987
:100DA0004FF0040A01E0C0F1070AD14600F1040A3D
:100DB000BAF1070F02D24FF0000A01E0A0F1030AD6
:100DC000D4464FF0010A0AFA09FAAAF1010A0AEA1E
:100DD000020A0AFA0CFA4FF0010B0BFA0CFBABF10A
:100DE000010B0BEA030B4AEA0B042146404600F0D4
:100DF000B3FEBDE8F09F000000BF00F00702064B05
:100E000019684FF6FF031940044B0B4343EA0221D4
:100E1000014B196000BF70470CED00E00000FA05BF
:100E200070B504460D4600266248006800F00700D1
:100E3000A8420ED25F48006820F0070028435D49B1
:100E400008600846006800F00700A84201D00120B1
:100E500070BD207800F00200022807D15648406893
:100E600020F0F000A168084353494860207800F062
:100E7000010000285DD06068012806D14E48006856
:100E800000F4003090B90120E2E76068022806D142
:100E90004948006800F0007040B90120D8E7464892
:100EA000006800F0020008B90120D1E7424840681C
:100EB00020F00300616808433F494860FFF7B0FE37
:100EC00006466068012810D108E0FFF7A9FE801BE4
:100ED00041F28831884201D90320B9E73648406899
:100EE00000F00C000428F0D123E06068022810D143
:100EF00008E0FFF795FE801B41F28831884201D956
:100F00000320A5E72C48406800F00C000828F0D129
:100F10000FE008E0FFF784FE801B41F28831884231
:100F200001D9032094E72448406800F00C00002811
:100F3000F0D12048006800F00700A8420ED91D48F3
:100F4000006820F0070028431A4908600846006836
:100F500000F00700A84201D0012079E7207800F0D6
:100F60000400042807D11448406820F4E060E168D8
:100F7000084311494860207800F00800082808D18B
:100F80000D48406820F46050216940EAC1000A49D8
:100F9000486000F03DF808494968C1F30311074A69
:100FA000515CC840064908600020FFF75FFE002042
:100FB0004EE700000020024000100240822200089C
:100FC0001000002001480068704700001000002059
:100FD00000B5FFF7F7FF04494968C1F30221034A4E
:100FE000515CC84000BD0000001002409222000881
:100FF00000B5FFF7E7FF04494968C1F3C221034A7E
:10100000515CC84000BD0000001002409222000860
:10101000F0B585B00FF26C0C9CE8E01001A8A0E8D8
:10102000E0101CA52D68009500210022002300245B
:101030000020194D696801F00C05F5B1042D02D0AE
:10104000082D19D101E0154819E001ADC1F383461F
:10105000AC5D01F4803555B10F4D6D68C5F3404569
:101060001DF805200D4D6543B5FBF2F302E00C4D74
:1010700004FB05F3184602E000BF0A4800BF00BFAA
:1010800005B0F0BD02030405060708090A0B0C0DA4
:101090000E0F10100102000000100240001BB700EC
:1010A00000093D0000127A00F8B5044600252078BA
:1010B00000F00100002878D0F848406800F00C00EB
:1010C00004280CD0F548406800F00C00082811D125
:1010D000F248406800F48030B0F5803F0AD1EF4814
:1010E000006800F4003000285FD0606800285CD100
:1010F0000120F8BD00BF6068B0F5803F06D1E74829
:10110000006840F48030E549086028E0606858B91C
:10111000E248006820F48030E04908600846006832
:1011200020F4802008601AE06068B0F5A02F0BD191
:10113000DA48006840F48020D84908600846006812
:1011400040F4803008600AE0D448006820F4803021
:10115000D24908600846006820F48020086000BF7B
:10116000606888B1FFF75CFD054606E0FFF758FDB3
:10117000401B642801D90320BBE7C848006800F47D
:1011800000300028F2D010E0FFF74AFD054606E0E7
:10119000FFF746FD401B642801D90320A9E7BF489B
:1011A000006800F400300028F2D1207800F002003E
:1011B000022857D1B948406800F00C0050B1B74838
:1011C000406800F00C00082818D1B448406800F4CA
:1011D000803098B9B148006800F0020020B1206961
:1011E000012801D0012084E7AC48006820F0F80015
:1011F000616940EAC100A949086033E02069E8B1AB
:101200000120A7490860FFF70BFD054606E0FFF740
:1012100007FD401B022801D903206AE79F480068A8
:1012200000F002000028F2D09C48006820F0F8008E
:10123000616940EAC1009949086013E000209849BB
:101240000860FFF7EDFC054606E0FFF7E9FC401BF0
:10125000022801D903204CE79048006800F0020002
:101260000028F2D1207800F0080008282DD1A069CC
:10127000B8B101208B490860FFF7D2FC054606E0B3
:10128000FFF7CEFC401B022801D9032031E7834839
:10129000406A00F002000028F2D0012000F072FC49
:1012A00013E000207F490860FFF7BAFC054606E01E
:1012B000FFF7B6FC401B022801D9032019E7774845
:1012C000406A00F002000028F2D1207800F004000B
:1012D000042873D100267148C06900F0805070B9AD
:1012E00000BF6E48C06940F080506C49C861084634
:1012F000C06900F08050009000BF00BF01266A481E
:10130000006800F48070B0B96748006840F48070ED
:1013100065490860FFF784FC054606E0FFF780FC9E
:10132000401B642801D90320E3E65F48006800F40D
:1013300080700028F2D000BFE068012806D157482D
:10134000006A40F001005549086227E0E06858B99A
:101350005248006A20F00100504908620846006ABD
:1013600020F00400086219E0E06805280BD14B4822
:10137000006A40F00400494908620846006A40F0EB
:10138000010008620AE04548006A20F00100434974
:1013900008620846006A20F00400086200BFE068A6
:1013A000A0B1FFF73DFC054609E0FFF739FC401B03
:1013B00041F28831884202D903209AE622E0374878
:1013C000006A00F002000028EFD012E0FFF728FCCE
:1013D000054608E0FFF724FC401B41F288318842B3
:1013E00001D9032085E62D48006A00F0020000289C
:1013F000F0D1012E05D12948C06920F0805027493D
:10140000C86100BFE069C8B32448406800F00C0020
:10141000082860D0E069022848D1002020490866E9
:10142000FFF7FEFB054606E0FFF7FAFB401B02282C
:1014300001D903205DE61948006800F0007000281B
:10144000F2D1206AB0F5803F07D11448406820F4FB
:101450000030A168084311494860D4E908010843F5
:101460000E49496821F4741108430C494860012071
:101470000B490866FFF7D4FB054607E02DE0FFF7B0
:10148000CFFB401B022801D9032032E60348006845
:1014900000F000700028F2D01FE0000000100240B1
:1014A00000004242800442420070004000200C498B
:1014B0000866FFF7B5FB054606E0FFF7B1FB401BEA
:1014C000022801D9032014E60648006800F00070E5
:1014D0000028F2D101E001200BE6002009E600001F
:1014E0000000424200100240042808D14FF0E021E1
:1014F000096941F004014FF0E022116107E04FF06B
:10150000E021096921F004014FF0E02211617047E8
:10151000704770B504462546681EB0F1807F01D340
:1015200001200FE0681E4FF0E02148610F214FF0CD
:10153000FF3000F011FB00204FF0E0218861072010
:101540000861002070BD10B5FFF7E2FF10BD70B557
:101550000446002520684069C0F3C01594F839009E
:1015600021280ED16DB12068406920F080002168EB
:101570004861206B10B1206BFEF743FE204600F05F
:1015800031FC20684069C0F3801594F83A002228A5
:101590000ED16DB12068406920F04000216848619B
:1015A000606B10B1606BFEF72CFE204600F0FAFB7A
:1015B000002070BD704700002DE9F0470446206808
:1015C00005682068C668206847694FF00008C14672
:1015D00005F00F08B8F1000F0AD105F0200038B16E
:1015E00006F0200020B1204600F006FCBDE8F087A0
:1015F000B8F1000F6DD007F0010018B906F4907033
:10160000002866D005F0010030B106F4807018B1F2
:10161000E06B40F00100E06305F0040030B107F03A
:10162000010018B1E06B40F00200E06305F0020039
:1016300030B107F0010018B1E06B40F00400E06346
:1016400005F0080030B107F0010018B1E06B40F080
:101650000800E063E06B68B305F0200028B106F0F5
:10166000200010B1204600F0C7FB20684069C0F39D
:101670008019E06B00F0080010B9B9F1000F22D01A
:10168000204600F08FFB2068406900F04000B0B1B8
:101690002068406920F0400021684861606B50B1CB
:1016A0001748616B4863606BFEF7C8FD10B1606B53
:1016B000416B88470CE02046FFF77CFF08E020469E
:1016C000FFF778FF04E02046FFF774FF0020E06397
:1016D0008CE705F0800030B106F0800018B120469C
:1016E00000F0C2FC82E705F0400030B106F0400097
:1016F00018B1204600F066FB78E700BF76E70000EF
:10170000A91C000810B504460CB9012010BDA06941
:1017100000B100E000BF94F8390028B9002084F837
:101720003800204600F028F8242084F8390020688A
:10173000C06820F400502168C860204600F0B0FB6B
:101740002068006920F490402168086120684069A1
:1017500020F02A00216848612068C06840F40050E9
:101760002168C8600020E063202084F8390084F8F4
:101770003A000020CAE7000010B586B00446394997
:10178000206888426BD100BF3748C06940F4802090
:101790003549C8610846C06900F48020019000BF47
:1017A00000BF88150290022003900320059002A933
:1017B0002E48FFF78FF84FF400700290002003903E
:1017C000049002A92948FFF785F800BF2849486816
:1017D00020F0300040F0E06040F03000486000BF92
:1017E0002448254908600020486000212248816083
:1017F0008021C1600021016141618161C161FEF709
:10180000BDFF18B180211DA000F098FC00BF1A4850
:101810006063446200BF174814381F4908601020F5
:10182000486000211C4881608021C1600021016165
:1018300041618161C161FEF7A1FF18B190210FA044
:1018400000F07CFC00BF14482063446200BF00220B
:1018500011462720FFF791FA2720FFF781FA06B0FB
:1018600010BD00000048004000100240001401407C
:101870000000014030000240540000202E2E2F5363
:1018800072632F73746D3332663178785F68616C80
:101890005F6D73702E6300009800002077B581B0F3
:1018A0000446154694F83A00202850D1029800B119
:1018B00015B9012004B070BD00BF94F838000128AC
:1018C00001D10220F6E7012084F8380000BF029819
:1018D000A062A5850020E063222084F83A001D481C
:1018E000616B88621C48616BC8621C48616B08634D
:1018F0000020616B486302AE32682368191D2B46D5
:10190000606BFEF785FF00BF002000902068006834
:10191000009020684068009000BF00BF00BF00201A
:1019200084F8380000BF2068C06840F480702168E7
:10193000C8602068406940F0010021684861206863
:10194000406940F04000216848610020B2E7022071
:10195000B0E700000D1D0008531D0008BD1C000865
:1019600070477047F7B50446154694F839002028AB
:101970003DD1019800B10DB90120FEBD00BF94F822
:101980003800012801D10220F7E7012084F838004F
:1019900000BF01982062A584E5840020E063212037
:1019A00084F839001348216B88621348216BC862A0
:1019B0001248216B08630020216B486301AE236845
:1019C0001A1D31682B46206BFEF722FF6FF0400096
:1019D0002168086000BF002084F8380000BF20683C
:1019E000406940F08000216848610020C5E702207E
:1019F000C3E70000611D0008971D0008BD1C00081A
:101A00007047704700BFFEE708B500BF0E48406949
:101A100040F001000C4948610846406900F00100AF
:101A2000009000BF00BF002211460C20FFF7A5F96F
:101A30000C20FFF795F9002211460D20FFF79DF9C4
:101A40000D20FFF78DF908BD0010024000B585B0EC
:101A500000BF1E48806940F008001C4988610846A4
:101A6000806900F00800009000BF00BF00BF08467A
:101A7000806940F0200088610846806900F02000FD
:101A8000009000BF00BF00BF0846806940F004001E
:101A900088610846806900F00400009000BF00BF24
:101AA00000224FF400410A48FFF7B4F84FF4004019
:101AB000019001200290002003900220049001A9CF
:101AC0000348FEF707FF05B000BD0000001002400C
:101AD000000C014010B51448144908604FF4E1307F
:101AE0004860002111488160C16001610C214161A1
:101AF00000218161C161FFF705FE20B14FF49B71A8
:101B00000BA000F01BFB09480068C06840F0100003
:101B100006490968C86005480068406940F001004E
:101B200002490968486110BD0048004014000020C7
:101B30002E2E2F5372632F6D61696E2E630000008D
:101B400000BFFEE77047000002480068C0F30220B3
:101B5000704700000CED00E010B5002807DA0A0716
:101B6000140E054A00F00F031B1FD45403E00A07AC
:101B7000130E024A135410BD18ED00E000E400E01B
:101B80007047000008B508490968C9084FF47A721F
:101B9000B1FBF2F14143009100BF00BF00994A1E22
:101BA00000920029F9D108BD10000020704710B53F
:101BB000FFF73CF8FFF7C7FC10BD000010B590B070
:101BC00001200690000407900020089001200A9050
:101BD00002200D90C1030E91C1040F9106A8FFF7DA
:101BE00063FA20B140F20B1115A000F0A7FA0F2004
:101BF000019002200290002003904FF48060049036
:101C000000200590022101A8FFF70AF920B140F257
:101C100019110BA000F092FAFFF7D4F94FF47A7182
:101C2000B0FBF1F42046FFF774FC0420FFF75CFCE6
:101C300000221146501EFFF7A0F810B010BD0000A2
:101C40002E2E2F5372632F6D61696E2E630000007C
:101C50001148006840F001000F49086008464068DC
:101C60000E4908400C494860084600680C49084085
:101C7000094908600846006820F48020086008468A
:101C8000406820F4FE0048604FF41F008860C803DD
:101C90000449086070470000001002400000FFF88F
:101CA000FFFFF6FE08ED00E070B505466C6A002007
:101CB000E085E0842046FFF77DFC70BD70B50646E8
:101CC0000025746A20684069C0F3C01594F8390093
:101CD000212805D125B10020E084204600F082F8BB
:101CE00020684069C0F3801594F83A00222805D195
:101CF00025B10020E085204600F054F8E06B40F06C
:101D00001000E0632046FFF755FC70BD70B5054636
:101D10006C6A2868006800F02000B0B90020E085F7
:101D20002068C06820F480702168C860206840691D
:101D300020F00100216848612068406920F04000DF
:101D400021684861202084F83A002046FFF708FE09
:101D500070BD70B50446656A2846FFF702FE70BD87
:101D600070B505466C6A2868006800F0200070B9FC
:101D70000020E0842068406920F0800021684861EC
:101D80002068C06840F040002168C86002E020463A
:101D9000FFF736FE70BD70B50446656A2846FFF74A
:101DA00030FE70BD0168C96821F490710268D1608D
:101DB0000168496921F0010102685161202180F820
:101DC0003A10704710B504462068C06820F0400003
:101DD0002168C860202084F839002046FFF710FEF3
:101DE000002010BD0168C96821F0C0010268D160FF
:101DF000202180F83910704770B5044694F83A00F5
:101E000022284AD1A068B0F5805F13D1A56A206965
:101E100040B920684068C0F308002880A06A801C90
:101E2000A06219E020684068C0B22880A06A401C07
:101E3000A06211E0206938B920684068C1B2A26A86
:101E4000501CA062117007E02068406800F07F011C
:101E5000A26A501CA0621170E08D401E80B2E08525
:101E6000C8B92068C06820F020002168C8602068D8
:101E7000C06820F480702168C8602068406920F044
:101E8000010021684861202084F83A002046FFF7CD
:101E900067FD002070BD0020FCE70220FAE700008B
:101EA0002DE9F041044600252068006920F44050E7
:101EB000E1680843216808612169A06808436169F5
:101EC000084305432068C06841F20C6188432843F9
:101ED0002168C8602068406920F44070A169084307
:101EE000216848615F49206888425CD1FFF780F82B
:101EF00000EBC00101EB001061688900B0FBF1F656
:101F0000FFF776F800EBC00101EB00106168890073
:101F1000B0FBF1F06421B0FBF1F000EBC00101EB8C
:101F20000010A6EB8000322101EB00106421B0FB11
:101F3000F1F000F0F006FFF75BF800EBC00101EBF9
:101F4000001061688900B0FBF1F06421B0FBF1F092
:101F500006EB0016FFF74CF800EBC00101EB001098
:101F600061688900B0FBF1F7FFF742F800EBC001B0
:101F700001EB001061688900B0FBF1F06421B0FB57
:101F8000F1F000EBC00101EB0010A7EB8000322163
:101F900001EB00106421B0FBF1F000F00F003044C1
:101FA000216888605BE0FFF713F800EBC00101EBEC
:101FB000001061688900B0FBF1F6FFF709F800EB4B
:101FC000C00101EB001061688900B0FBF1F06421F1
:101FD000B0FBF1F000EBC00101EB0010A6EB8000BC
:101FE000322101EB00106421B0FBF1F000F0F006AB
:101FF000FEF7EEFF00EBC00101EB00106168890005
:10200000B0FBF1F06421B0FBF1F006EB0016FEF737
:10201000DFFF00EBC00101EB001061688900B0FB3D
:10202000F1F7FEF7D5FF00EBC00101EB001061688E
:102030008900B0FBF1F06421B0FBF1F000EBC001CE
:1020400001EB0010A7EB8000322101EB00106421AE
:10205000B0FBF1F000F00F00304421688860BDE86B
:10206000F081000000380140014691F83900212834
:102070002CD18868B0F5805F0FD10A6A1088C0F350
:1020800008000B685860086918B9086A801C086263
:1020900009E0086A401C086205E00B6A581C0862E7
:1020A00018780B685860C88C401E80B2C88458B934
:1020B0000868C06820F080000B68D8600868C068B5
:1020C00040F040000B68D860002070470220FCE719
:1020D00038B51448FFF770FA124800681249884270
:1020E0001FD1104800680068C0F30010C8B100BFDD
:1020F000002000900B4800680068009009480068C4
:102100004068009000BF00BF0648FFF720FA07486C
:1021100000684468C4F114000549087001200549AD
:10212000087038BD14000020004800405400002012
:10213000010000200000002000BFFEE700BFFEE716
:1021400002E008C8121F08C1002AFAD17047704780
:10215000002001E001C1121F002AFBD170470000DE
:1021600008B5FEF76FFDFFF729FDFFF76FFCFFF7DE
:102170004BFCFFF7AFFC5AE02D48007801282ED128
:1021800000202C4908702A4908702B492B48FEF77B
:1021900026F82B480068C06820F004002849096828
:1021A000C8600122D1032748FEF734FD6420FEF702
:1021B0007DFB062220492248FFF7D4FB6420FEF76E
:1021C00075FB00224FF400411E48FEF723FD1C481A
:1021D0000068C06840F0040019490968C86014220A
:1021E00016491748FFF75AFB154800680068C0F306
:1021F000002020B16FF48070114909680860104810
:1022000000680068C0F3C00088B16FF020000C497E
:102210000968086000BF0020009009480068006855
:102220000090074800684068009000BF00BFA3E727
:102230000000002001000020F0000020DC00002051
:1022400014000020000C01400246002000BF06E000
:10225000C0F10303DB0022FA03F30B54401C0428F3
:10226000F6DB7047014600200A7840EA02624B78AC
:1022700042EA03428B7842EA0322CB7842EA030027
:102280007047000000000000000001020304060780
:10229000080900000000010203040000BC2200083D
:1022A000000000201400000040210008D022000897
:1022B00014000020F4040000502100080000000079
:1022C00000000000100000000100000000A24A040D
:0400000508000131BD
:00000001FF
