:020000040800F2
:100000005805002065010008311F0008B51D0008D3
:100010002D1F00084D020008BD250008000000004B
:10002000000000000000000000000000991F000810
:10003000D1020008000000006D1F00089B1F00088F
:100040007F0100087F0100087F0100087F01000890
:100050007F0100087F0100087F0100087F01000880
:100060007F0100087F0100087F0100087F01000870
:1000700085020008950200087F0100087F01000842
:100080007F0100087F0100087F0100087F01000850
:100090007F0100087F0100087F0100087F01000840
:1000A0007F0100087F0100087F0100087F01000830
:1000B0007F0100087F0100087F0100087F01000820
:1000C0007F0100087F0100087F0100087F01000810
:1000D0007F0100087F01000845250008552500081C
:1000E0007F0100087F0100087F0100080000000078
:1000F0000000000000000000000000000000000000
:1001000000000000000000007F0100087F010008DF
:100110007F0100087F0100087F0100087F010008BF
:100120007F0100087F0100087F0100087F010008AF
:100130007F01000800000000000000007F010008AF
:100140007F0100087F0100087F0100087F0100088F
:10015000DFF80CD000F068F800480047E9280008F4
:10016000580500200648804706480047FEE7FEE79E
:10017000FEE7FEE7FEE7FEE7FEE7FEE7FEE7FEE757
:100180004D200008510100082DE9F05F05460020D0
:1001900092469B4688460646814640241BE02846F8
:1001A00041464746224600F020F853465A46C01AB8
:1001B000914110D311461846224600F026F82D1A18
:1001C00067EB01084F4622460120002100F01DF890
:1001D00017EB00094E41201EA4F10104DFDC484664
:1001E00031462A464346BDE8F09F202A04DB203AE8
:1001F00021FA02F00021704721FA02F3D040C2F147
:1002000020029140084319467047202A04DB203A17
:1002100000FA02F1002070479140C2F1200320FA59
:1002200003F3194390407047064C074D06E0E06821
:1002300040F0010394E8070098471034AC42F6D32D
:10024000FFF78AFF542B0008742B000800BFFEE75D
:1002500030B505460024284602F060FC04460748F5
:100260000068801C844205D005480088401C044971
:10027000088001E00148046030BD00000800002053
:100280000600002010B5024800F026F910BD00005D
:10029000E800002010B5024800F01EF910BD000073
:1002A000A400002030B590F840500124AC40C56B4C
:1002B0006C60046863604468102C04D10468A26018
:1002C0000468E16003E00468A1600468E26030BD96
:1002D000704770B506460C460025304602F01EFCFD
:1002E00005466D1C2146284602F00AFC0A202071B2
:1002F000607170BD014600200A68126822F00E028B
:100300000B681A600A68126822F001020B681A6012
:1003100091F8403001229A40CB6B5A60012281F85B
:10032000212000BF002281F8202000BF704700007C
:1003300070B50446002594F82100022803D004205B
:10034000A0630125C1E02068006820F00E0021684C
:1003500008602068006820F00100216808605C499E
:100360002068884252D95A4978392068884201D198
:10037000012047E0564964392068884201D11020A5
:1003800040E0534950392068884201D1801539E056
:100390004F493C392068884201D1801432E04C49F1
:1003A00028392068884202D14FF480302AE0484939
:1003B00014392068884202D14FF4801022E0444969
:1003C0002068884201D140041CE0424920688842EC
:1003D00001D1012016E03F4914312068884201D143
:1003E00010200FE03B4928312068884201D1801558
:1003F00008E038493C312068884201D1801401E08E
:100400004FF480303349091F086051E03049783992
:100410002068884201D1012047E02D4964392068D5
:10042000884201D1102040E0294950392068884293
:1004300001D1801539E026493C392068884201D134
:10044000801432E0224928392068884202D14FF4D2
:1004500080302AE01E4914392068884202D14FF4C6
:10046000801022E01A492068884201D140041CE033
:1004700018492068884201D1012016E0154914313D
:100480002068884201D110200FE0124928312068ED
:10049000884201D1801508E00E493C31206888422D
:1004A00001D1801401E04FF480300949803948605F
:1004B000012084F8210000BF002084F8200000BF44
:1004C000606B10B12046616B8847284670BD000004
:1004D000800002400804024070B50446E06B0568E5
:1004E0002068066894F840100420884028400028BE
:1004F00075D006F004000028FAD02068006800F0EB
:10050000200028B92068006820F0040021680860F5
:10051000D5492068884254D9D3497839206888421F
:1005200001D1042049E0D04964392068884201D1D2
:10053000402042E0CC4950392068884201D1001562
:100540003BE0C9493C392068884202D14FF48040E1
:1005500033E0C54928392068884202D14FF4802011
:100560002BE0C14914392068884202D14FF4800041
:1005700023E0BD492068884201D1C0041DE0BB4989
:100580002068884201D1042017E0B849143120685E
:10059000884201D1402010E0B449283120688842C7
:1005A00001D1001509E0B1493C312068884202D1EF
:1005B0004FF4804001E04FF48020AC49091F0860EF
:1005C00054E0A94978392068884201D104204AE0E2
:1005D000A54964392068884202D1402043E04CE0BC
:1005E000A14950392068884201D100153BE09E495D
:1005F0003C392068884202D14FF4804033E09A4968
:1006000028392068884202D14FF480202BE0964997
:1006100014392068884202D14FF4800023E09249C7
:100620002068884201D1C0041DE0904920688842BA
:1006300001D1042017E08D4914312068884201D18E
:10064000402010E0894928312068884201D10015F6
:1006500009E086493C312068884202D14FF480404D
:1006600001E04FF48020804980394860E06A00282A
:1006700002D02046E16A8847F4E094F84010022056
:1006800088402840002871D006F002000028FAD0E7
:100690002068006800F0200040B92068006820F061
:1006A0000A0021680860012084F821006E49206852
:1006B000884254D96C4978392068884201D1022097
:1006C00049E0694964392068884201D1202042E02C
:1006D000654950392068884201D140153BE06249A4
:1006E0003C392068884202D14FF4005033E05E4923
:1006F00028392068884202D14FF400302BE05A4953
:1007000014392068884202D14FF4001023E0564982
:100710002068884201D180041DE054492068884245
:1007200001D1022017E0514914312068884201D1DB
:10073000202010E04D4928312068884201D1401521
:1007400009E04A493C312068884202D14FF4005008
:1007500001E04FF400304549091F086054E0424968
:1007600078392068884202D102204AE057E03E49A9
:1007700064392068884201D1202042E03A4950394A
:100780002068884201D140153BE037493C39206858
:10079000884202D14FF4005033E0334928392068B1
:1007A000884202D14FF400302BE02F4914392068E1
:1007B000884202D14FF4001023E02B492068884280
:1007C00001D180041DE029492068884201D102201E
:1007D00017E0264914312068884201D1202010E01A
:1007E000224928312068884201D1401509E01F497B
:1007F0003C312068884202D14FF4005001E04FF4B0
:10080000003019498039486000BF002084F820007A
:1008100000BFA06A30B32046A16A884722E094F85E
:100820004010082088402840E0B106F00800C8B118
:100830002068006820F00E002168086094F84010DD
:1008400001208840E16B48600120A06384F821000A
:1008500000BF002084F8200000BF206B10B12046AC
:10086000216B884770BD00008000024008040240F0
:100870000146002209B901207047204B08689842C0
:100880000BD21F4B0868C01A1423B0FBF3F0800092
:1008900008641B480838C8630AE0184B0868C01A87
:1008A0001423B0FBF3F08000086414480838C863D0
:1008B000022081F821000868026843F6F070824344
:1008C000D1E901031843CB6818430B6918434B69FE
:1008D00018438B691843CB691843024308680260C8
:1008E00000208862C862086348638863012081F839
:1008F0002100002081F8200000BFBDE7080402406D
:10090000080002402DE9F04104460D4616461F46F8
:100910004FF0000800BF94F82000012802D1022007
:10092000BDE8F081012084F8200000BF94F8210088
:1009300001282CD1022084F821000020A063206827
:10094000006820F00100216808603B4632462946D5
:100950002046FFF7A7FCE06A30B12068006840F04D
:100960000E00216808600BE02068006820F0040099
:10097000216808602068006840F00A00216808606B
:100980002068006840F001002168086006E000BFB0
:10099000002084F8200000BF4FF002084046BFE767
:1009A00070B5044600F0A4F906462546681C10B14F
:1009B00004480078054400BF00F09AF9801BA84263
:1009C000FAD370BD180000202DE9F8470346002433
:1009D000002000258446002700226EE14FF0010828
:1009E00008FA02F4D1F8008008EA0400A0427DD1A0
:1009F000DFF8D0A2D1F80480A8EB0A09D0453AD09C
:100A000014DCB8F1030F50D009DCB8F1000F31D07D
:100A1000B8F1010F1CD0B8F1020F49D120E0B8F1B4
:100A2000110F18D0B8F1120F42D11EE0B9F5881F8E
:100A300025D006DCB9F5803F20D0B9F5801F37D12D
:100A40001AE0B9F5001F18D0B9F5041F30D117E02E
:100A5000D1F80CC02DE0D1F80C8008F1040C28E08E
:100A6000D1F80C8008F1080C23E0D1F80C8008F1D3
:100A70000C0C1EE000BF00BF00BF00BF00BF00BFE6
:100A8000D1F80880B8F1000F02D14FF0040C0BE050
:100A9000D1F80880B8F1010F03D14FF0080C1C61A8
:100AA00002E04FF0080C5C6103E04FF0000C00E046
:100AB00000BF00BFFF2801D8984601E003F10408F9
:100AC0004646FF2802D84FEA820803E0A2F1080850
:100AD0004FEA88084746D6F800804FF00F0909FA18
:100AE00007F928EA09080CFA07F900E088E048EA63
:100AF0000908C6F80080D1F8048008F08058B8F1E1
:100B0000805F7DD100BFDFF8C081D8F8188048F041
:100B10000108DFF8B491C9F81880C846D8F81880E1
:100B200008F00108CDF8008000BF00BF4FEAB938D7
:100B30004FEA920958F829504FEA82784FEA18791B
:100B40004FF00F0808FA09F825EA0805DFF87C815C
:100B5000434502D14FF0000816E0DFF874814345A9
:100B600002D14FF001080FE0DFF86881434502D160
:100B70004FF0020808E0DFF86081434502D14FF0F2
:100B8000030801E04FF004084FEA82794FEA19792F
:100B900008FA09F848EA0505DFF840814FEA9209AA
:100BA00048F82950D1F8048008F48038B8F5803F1F
:100BB0000AD1DFF82C81D8F8008048EA0008DFF875
:100BC0002091C9F8008009E0DFF81481D8F800808E
:100BD00028EA0008DFF80891C9F80080D1F80480FD
:100BE00008F40038B8F5003F10D1DFF8F48008F1C0
:100BF0000408D8F8008048EA0008DFF8E49000E034
:100C00005AE009F10409C9F800800DE0DFF8D0804E
:100C100008F10408D8F8008028EA0008DFF8C0903E
:100C200009F10409C9F80080D1F8048008F480189B
:100C3000B8F5801F0ED1DFF8A88008F10808D8F8B1
:100C4000008048EA0008DFF8989009F10809C9F81F
:100C500000800DE0DFF8888008F10808D8F80080EF
:100C600028EA0008DFF8789009F10809C9F800803F
:100C7000D1F8048008F40018B8F5001F0ED1DFF891
:100C8000608008F10C08D8F8008048EA0008DFF816
:100C9000509009F10C09C9F800800DE0DFF84080A0
:100CA00008F10C08D8F8008028EA0008DFF8309036
:100CB00009F10C09C9F80080521C102AFFF48EAE0D
:100CC000BDE8F88700001110001002400008014044
:100CD000000C0140001001400014014008000140D8
:100CE000000401400AB1016101E00B040361704797
:100CF00001480068704700001000002003480068A9
:100D00000349097808440149086070471000002031
:100D10001800002010B50848006840F0100006498F
:100D20000860032000F0D0F8002000F007F800F081
:100D30002BF8002010BD00000020024070B50446D2
:100D40000E4800784FF47A71B1FBF0F00C49096855
:100D5000B1FBF0F5284600F010FD08B1012070BD90
:100D6000102C07D200222146501E00F06EF80548D4
:100D7000046001E00120F2E70020F0E71800002005
:100D80001C0000201400002008B500BF2648806920
:100D900040F00100244988610846806900F00100A4
:100DA000009000BF00BF00BF0846C06940F08050FF
:100DB000C8610846C06900F08050009000BF00BFC5
:100DC000032000F081F8002211466FF00B0000F0C4
:100DD0003CF8002211466FF00A0000F036F80022BD
:100DE00011466FF0090000F030F800221146501F44
:100DF00000F02BF800221146101F00F026F8002208
:100E00001146901E00F021F800221146501E00F0FD
:100E10001CF800BF0549486820F0E06040F0007011
:100E2000486000BF08BD0000001002400000014003
:100E300000BF00F01F02012191404209920002F11F
:100E4000E022C2F8001100BF70472DE9F05F804634
:100E50000D461646002701F06DF8074639462A462A
:100E6000334601F00700C0F1070ABAF1040F02D9B6
:100E70004FF0040A01E0C0F1070AD14600F1040A6C
:100E8000BAF1070F02D24FF0000A01E0A0F1030A05
:100E9000D4464FF0010A0AFA09FAAAF1010A0AEA4D
:100EA000020A0AFA0CFA4FF0010B0BFA0CFBABF139
:100EB000010B0BEA030B4AEA0B042146404601F002
:100EC00041F8BDE8F09F000000BF00F00702064BAC
:100ED00019684FF6FF031940044B0B4343EA022104
:100EE000014B196000BF70470CED00E00000FA05EF
:100EF00070B504460D4600266248006800F0070001
:100F0000A8420ED25F48006820F0070028435D49E0
:100F100008600846006800F00700A84201D00120E0
:100F200070BD207800F00200022807D156484068C2
:100F300020F0F000A168084353494860207800F091
:100F4000010000285DD06068012806D14E48006885
:100F500000F4003090B90120E2E76068022806D171
:100F60004948006800F0007040B90120D8E74648C1
:100F7000006800F0020008B90120D1E7424840684B
:100F800020F00300616808433F494860FFF7B0FE66
:100F900006466068012810D108E0FFF7A9FE801B13
:100FA00041F28831884201D90320B9E736484068C8
:100FB00000F00C000428F0D123E06068022810D172
:100FC00008E0FFF795FE801B41F28831884201D985
:100FD0000320A5E72C48406800F00C000828F0D159
:100FE0000FE008E0FFF784FE801B41F28831884261
:100FF00001D9032094E72448406800F00C00002841
:10100000F0D12048006800F00700A8420ED91D4822
:10101000006820F0070028431A4908600846006865
:1010200000F00700A84201D0012079E7207800F005
:101030000400042807D11448406820F4E060E16807
:10104000084311494860207800F00800082808D1BA
:101050000D48406820F46050216940EAC1000A4907
:10106000486000F03DF808494968C1F30311074A98
:10107000515CC840064908600020FFF75FFE002071
:101080004EE7000000200240001002403A2B00080A
:101090001C00002001480068704700001C00002070
:1010A00000B5FFF7F7FF04494968C1F30221034A7D
:1010B000515CC84000BD0000001002404A2B0008EF
:1010C00000B5FFF7E7FF04494968C1F3C221034AAD
:1010D000515CC84000BD0000001002404A2B0008CF
:1010E0002DE9F04F8BB03CA2D2E901311068D268F3
:1010F000CDE908310A9207903BA3D3E90020D3E958
:10110000021304AC0BC403924FF00009CB46CA464D
:10111000002400200290019000903748D0F80490FD
:1011200009F00C0000284FD0042802D008284AD12A
:1011300002E0324802904AE007A8C9F38341445CC8
:1011400009F48030C0B32C48C06A00F00F0003A936
:1011500011F800B02848C06A00F4803008B326486F
:10116000C06AC0F30310401C01902348C06AC0F35A
:101170000320801C00900198A0FB0B5006461F49DD
:101180000098A1FB00210023A2FB047C01FB04C109
:1011900002FB03112A4633463846FEF7F5FF824626
:1011A00003E016486043B0FBFBFA9DF82900A0421B
:1011B00006D14FEA5A0A03E0FFE7114804FB00FAA0
:1011C000CDF808A003E000BF0E48029000BF00BFAA
:1011D00002980BB0BDE8F08F00000405060708096F
:1011E00000000000000D00000102030405060708CE
:1011F000090A0B0C0D0E0F1000100240001BB70067
:1012000000093D0000127A00F8B504460025207858
:1012100000F00100002878D0FD48406800F00C0084
:1012200004280CD0FA48406800F00C00082811D1BE
:10123000F748406800F48030B0F5803F0AD1F448A8
:10124000006800F4003000285FD0A06800285CD15E
:101250000120F8BD00BFA068B0F5803F06D1EC4882
:10126000006840F48030EA49086028E0A06858B976
:10127000E748006820F48030E549086008460068C7
:1012800020F4802008601AE0A068B0F5A02F0BD1F0
:10129000DF48006840F48020DD49086008460068A7
:1012A00040F4803008600AE0D948006820F48030BB
:1012B000D74908600846006820F48020086000BF15
:1012C000A06888B1FFF714FD054606E0FFF710FDA2
:1012D000401B642801D90320BBE7CD48006800F417
:1012E00000300028F2D010E0FFF702FD054606E0CE
:1012F000FFF7FEFC401B642801D90320A9E7C4487E
:10130000006800F400300028F2D1207800F00200DC
:10131000022857D1BE48406800F00C0050B1BC48CC
:10132000406800F00C00082818D1B948406800F463
:10133000803098B9B648006800F0020020B16069BA
:10134000012801D0012084E7B148006820F0F800AE
:10135000A16940EAC100AE49086033E06069E8B1C4
:101360000120AC490860FFF7C3FC054606E0FFF723
:10137000BFFC401B022801D903206AE7A44800688B
:1013800000F002000028F2D0A148006820F0F80028
:10139000A16940EAC1009E49086013E000209D4910
:1013A0000860FFF7A5FC054606E0FFF7A1FC401B1F
:1013B000022801D903204CE79548006800F002009C
:1013C0000028F2D1207800F0080008282DD1E0692B
:1013D000B8B1012090490860FFF78AFC054606E095
:1013E000FFF786FC401B022801D9032031E788481B
:1013F000406A00F002000028F2D0012000F0B8FDA1
:1014000013E0002084490860FFF772FC054606E0FF
:10141000FFF76EFC401B022801D9032019E77C4826
:10142000406A00F002000028F2D1207800F00400A9
:10143000042873D100267648C06900F0805070B946
:1014400000BF7348C06940F080507149C8610846C8
:10145000C06900F08050009000BF00BF01266F48B7
:10146000006800F48070B0B96C48006840F4807087
:101470006A490860FFF73CFC054606E0FFF738FCC8
:10148000401B642801D90320E3E66448006800F4A7
:1014900080700028F2D000BF2069012806D15C4886
:1014A000006A40F001005A49086227E0206958B9F3
:1014B0005748006A20F00100554908620846006A52
:1014C00020F00400086219E0206905280BD150487B
:1014D000006A40F004004E4908620846006A40F085
:1014E000010008620AE04A48006A20F00100484909
:1014F00008620846006A20F00400086200BF206904
:10150000A0B1FFF7F5FB054609E0FFF7F1FB401B33
:1015100041F28831884202D903209AE622E03C4811
:10152000006A00F002000028EFD012E0FFF7E0FBB5
:10153000054608E0FFF7DCFB401B41F2883188429A
:1015400001D9032085E63248006A00F00200002835
:10155000F0D1012E05D12E48C06920F080502C49D1
:10156000C86100BFE06AA0B32948406800F4803039
:10157000B0F5803F0ED12648406800F00C000828E6
:1015800008D12348C06A00F48030B0F5803F01D113
:1015900001205EE6E06A022850D11D48006800F094
:1015A000805040B11A48C06A00F0F001606B81427F
:1015B00001D001204DE6002016498866FFF798FB10
:1015C000054607E0FFF794FB401B642802D903207F
:1015D0003FE64DE00E48006800F000600028F1D1C1
:1015E0000B48C06A20F0F000616B08430849C862EC
:1015F0000846C06A20F47060216B08430449C86241
:10160000012004498866FFF773FB05460FE00000E0
:10161000001002400000424280044242007000403C
:10162000FFF766FB401B642801D9032011E64648FA
:10163000006800F000600028F2D019E04248C06A5B
:1016400020F480304049C862002040498866FFF796
:101650004FFB054606E0FFF74BFB401B642801D912
:101660000320F6E53848006800F000600028F2D159
:10167000206AE0B33448406800F00C0008285ED0CF
:10168000206A022846D1002030490866FFF730FB67
:10169000054606E0FFF72CFB401B022801D903207A
:1016A000D7E52948006800F000700028F2D1606A90
:1016B000B0F5803F0DD12448C06A616808432249D3
:1016C000C8620846C06A20F00F00E16808431E495E
:1016D000C862D4E9090108431B49496821F474111F
:1016E00008431949486001201849086600E028E0CD
:1016F000FFF7FEFA054606E0FFF7FAFA401B02285C
:1017000001D90320A5E51048006800F0007000280A
:10171000F2D016E000200D490866FFF7E9FA054609
:1017200006E0FFF7E5FA401B022801D9032090E507
:101730000548006800F000700028F2D101E00120A7
:1017400087E5002085E500000010024000004242CD
:10175000042808D14FF0E021096941F004014FF05D
:10176000E022116107E04FF0E021096921F0040156
:101770004FF0E02211617047704770B5044625466E
:10178000681EB0F1807F01D301200FE0681E4FF08A
:10179000E02148610F214FF0FF3000F0D3FB002023
:1017A0004FF0E021886107200861002070BD10B56E
:1017B000FFF7E2FF10BD70B50446002520684069C0
:1017C000C0F3C01594F8390021280ED16DB12068FE
:1017D000406920F0800021684861206B10B1206BC7
:1017E000FEF788FD204600F001FD20684069C0F347
:1017F000801594F83A0022280ED16DB12068406916
:1018000020F0400021684861606B10B1606BFEF70A
:1018100071FD204600F0CAFC002070BD704700003A
:101820002DE9F0470446206805682068C6682068EE
:1018300047694FF00008C14605F00F08B8F1000FE6
:101840000AD105F0200038B106F0200020B1204672
:1018500000F0D6FCBDE8F087B8F1000F6DD007F0BE
:10186000010018B906F49070002866D005F0010058
:1018700030B106F4807018B1E06B40F00100E06315
:1018800005F0040030B107F0010018B1E06B40F042
:101890000200E06305F0020030B107F0010018B16A
:1018A000E06B40F00400E06305F0080030B107F0A1
:1018B000010018B1E06B40F00800E063E06B68B332
:1018C00005F0200028B106F0200010B1204600F0FD
:1018D00097FC20684069C0F38019E06B00F00800B5
:1018E00010B9B9F1000F22D0204600F05FFC20684B
:1018F000406900F04000B0B12068406920F040002D
:1019000021684861606B50B11748616B4863606B38
:10191000FEF70EFD10B1606B416B88470CE020466E
:10192000FFF77CFF08E02046FFF778FF04E0204641
:10193000FFF774FF0020E0638CE705F0800030B112
:1019400006F0800018B1204600F092FD82E705F015
:10195000400030B106F0400018B1204600F036FCDF
:1019600078E700BF76E70000B120000810B5044614
:101970000CB9012010BDA06900B100E000BF94F8CF
:10198000390028B9002084F83800204600F028F8F3
:10199000242084F839002068C06820F400502168B1
:1019A000C860204600F080FC2068006920F4904068
:1019B000216808612068406920F02A002168486198
:1019C0002068C06840F400502168C8600020E063CF
:1019D000202084F8390084F83A000020CAE700008B
:1019E00010B586B0044654492068884232D100BF01
:1019F0005248C06940F400305049C8610846C06987
:101A000000F40030019000BF00BF202002900220AF
:101A100003900320059002A94948FEF7D5FF402016
:101A2000029000200390049002A94548FEF7CCFFE5
:101A300000BF4449486840F0E06040F0080048605A
:101A400000BF002211462620FFF7FFF92620FFF7EE
:101A5000EFF96FE03C49206888426BD100BF3748FE
:101A6000C06940F480203549C8610846C06900F467
:101A70008020019000BF00BF8815029002200390D3
:101A80000320059002A92E48FEF79EFF4FF4007038
:101A9000029000200390049002A92948FEF794FFC9
:101AA00000BF2849486820F0300040F0E06040F076
:101AB0003000486000BF2548254908600020486084
:101AC0000021234881608021C160002101614161C2
:101AD0008161C161FEF7CCFE18B19F211DA000F00D
:101AE0006FFD00BF1A486063446200BF1748143896
:101AF0001F4908601020486000211D488160802136
:101B0000C1600021016141618161C161FEF7B0FEE8
:101B100018B1AF210FA000F053FD00BF144820639F
:101B2000446200BF002211462720FFF78EF92720CC
:101B3000FFF77EF906B010BD0044004000100240DF
:101B40000014014000000140004800403000024005
:101B5000A40000202E2E2F5372632F73746D333226
:101B6000663178785F68616C5F6D73702E6300001A
:101B7000E800002077B581B00446154694F83A0095
:101B8000202850D1029800B115B9012004B070BDD1
:101B900000BF94F83800012801D10220F6E70120A7
:101BA00084F8380000BF0298A062A5850020E06399
:101BB000222084F83A001D48616B88621C48616BE2
:101BC000C8621C48616B08630020616B486302AE09
:101BD00032682368191D2B46606BFEF793FE00BF29
:101BE0000020009020680068009020684068009005
:101BF00000BF00BF00BF002084F8380000BF20688D
:101C0000C06840F480702168C8602068406940F076
:101C10000100216848612068406940F04000216867
:101C200048610020B2E70220B0E70000152100085B
:101C30005B210008C5200008704770472DE9F84374
:101C400004460D4616461F464FF0000994F8390029
:101C500020285CD105B116B90120BDE8F88300BF8A
:101C600094F83800012801D10220F6E7012084F819
:101C7000380000BF0020E063212084F83900FFF71E
:101C800037F88146A684E6842BE0E08C401EE08491
:101C9000A068B0F5805F16D14B4600228021204617
:101CA000009700F019FC08B10320D6E7A846B8F861
:101CB0000000C0F3080021684860206908B9AD1C25
:101CC0000FE06D1C0DE04B4600228021204600975E
:101CD00000F002FC08B10320BFE715F8010B2168F2
:101CE0004860E08C0028D0D14B460022402120469D
:101CF000009700F0F1FB08B10320AEE7202084F844
:101D0000390000BF002084F8380000BFA5E702209A
:101D1000A3E70000F7B50446154694F839002028DB
:101D20003DD1019800B10DB90120FEBD00BF94F86E
:101D30003800012801D10220F7E7012084F838009B
:101D400000BF01982062A584E5840020E063212083
:101D500084F839001348216B88621348216BC862EC
:101D60001248216B08630020216B486301AE236891
:101D70001A1D31682B46206BFEF7C4FD6FF0400042
:101D80002168086000BF002084F8380000BF206888
:101D9000406940F08000216848610020C5E70220CA
:101DA000C3E70000692100089F210008C520000842
:101DB0007047704700BFFEE708B500BF0E48406996
:101DC00040F001000C4948610846406900F00100FC
:101DD000009000BF00BF002211460C20FFF735F82D
:101DE0000C20FFF725F8002211460D20FFF72DF8F3
:101DF0000D20FFF71DF808BD0010024000B585B0AA
:101E000000BF1E48806940F008001C4988610846F0
:101E1000806900F00800009000BF00BF00BF0846C6
:101E2000806940F0200088610846806900F0200049
:101E3000009000BF00BF00BF0846806940F004006A
:101E400088610846806900F00400009000BF00BF70
:101E500000224FF400410A48FEF744FF4FF40040CF
:101E6000019001200290002003900220049001A91B
:101E70000348FEF7A9FD05B000BD000000100240B8
:101E8000000C014010B50C480C4908604FF4E130DB
:101E90004860002109488160C16001610C214161F5
:101EA00000218161C161FFF761FD20B140F279112C
:101EB00003A000F085FB10BD00440040240000207A
:101EC0002E2E2F5372632F6D61696E2E63000000FA
:101ED00010B51048104908604FF4E1304860002107
:101EE0000D488160C16001610C2141610021816167
:101EF000C161FFF73BFD20B14FF4C67107A000F0B0
:101F00005FFB05480068C06840F01000024909689E
:101F1000C86010BD00480040640000202E2E2F53E2
:101F200072632F6D61696E2E6300000000BFFEE7D3
:101F30007047000002480068C0F3022070470000AC
:101F40000CED00E010B5002807DA0A07140E054A68
:101F500000F00F031B1FD45403E00A07130E024ABC
:101F6000135410BD18ED00E000E400E070470000DD
:101F700008B508490968C9084FF47A72B1FBF2F153
:101F80004143009100BF00BF00994A1E0092002902
:101F9000F9D108BD1C000020704710B5FEF7AEFE59
:101FA000FFF705FC10BD000010B594B001200690AD
:101FB000000408900020099001200B900020079059
:101FC00002200E90C1030F91C104109100201190C6
:101FD00006A8FFF719F920B14FF4A57116A000F07B
:101FE000EFFA0F20019002200290002003904FF49E
:101FF0008060049000200590022101A8FEF778FF80
:1020000020B14FF4AC710CA000F0DAFAFFF742F8FF
:102010004FF47A71B0FBF1F42046FFF7AEFB0420D9
:10202000FFF796FB01200849086700221146801E31
:10203000FEF70BFF14B010BD2E2E2F5372632F6DC1
:1020400061696E2E6300000000004242144800687F
:1020500040F00100124908600846406811490840F4
:102060000F494860084600680F4908400C4908605D
:102070000846006820F4802008600846406820F484
:10208000FE0048600846006820F0A05008604FF449
:102090007F0088600020C862C80304490860704758
:1020A000001002400000FFF0FFFFF6FE08ED00E028
:1020B00070B505466C6A0020E085E0842046FFF795
:1020C000ADFB70BD70B506460025746A2068406996
:1020D000C0F3C01594F83900212805D125B100209E
:1020E000E084204600F082F820684069C0F3801543
:1020F00094F83A00222805D125B10020E085204639
:1021000000F054F8E06B40F01000E0632046FFF769
:1021100085FB70BD70B505466C6A2868006800F0E4
:102120002000B0B90020E0852068C06820F48070ED
:102130002168C8602068406920F00100216848617A
:102140002068406920F0400021684861202084F820
:102150003A002046FFF770FD70BD70B50446656A11
:102160002846FFF76AFD70BD70B505466C6A2868A1
:10217000006800F0200070B90020E0842068406909
:1021800020F08000216848612068C06840F040006D
:102190002168C86002E02046FFF70AFE70BD70B5F6
:1021A0000446656A2846FFF704FE70BD0168C968E9
:1021B00021F490710268D1600168496921F0010140
:1021C00002685161202180F83A10704710B504462A
:1021D0002068C06820F040002168C860202084F892
:1021E00039002046FFF7E4FD002010BD0168C968F2
:1021F00021F0C0010268D160202180F839107047B9
:1022000070B5044694F83A0022284AD1A068B0F587
:10221000805F13D1A56A206940B920684068C0F387
:1022200008002880A06A801CA06219E0206840682D
:10223000C0B22880A06A401CA06211E0206938B9B1
:1022400020684068C1B2A26A501CA062117007E009
:102250002068406800F07F01A26A501CA0621170E3
:10226000E08D401E80B2E085C8B92068C06820F0CB
:1022700020002168C8602068C06820F48070216850
:10228000C8602068406920F0010021684861202072
:1022900084F83A002046FFF7CFFC002070BD0020F4
:1022A000FCE70220FAE700002DE9F0410446002592
:1022B0002068006920F44050E16808432168086103
:1022C0002169A06808436169084305432068C06824
:1022D00041F20C61884328432168C8602068406946
:1022E00020F44070A1690843216848615F49206873
:1022F00088425CD1FEF7E4FE00EBC00101EB001068
:1023000061688900B0FBF1F6FEF7DAFE00EBC00170
:1023100001EB001061688900B0FBF1F06421B0FBB3
:10232000F1F000EBC00101EB0010A6EB80003221C0
:1023300001EB00106421B0FBF1F000F0F006FEF7B5
:10234000BFFE00EBC00101EB001061688900B0FB2B
:10235000F1F06421B0FBF1F006EB0016FEF7B0FEE1
:1023600000EBC00101EB001061688900B0FBF1F7E0
:10237000FEF7A6FE00EBC00101EB001061688900CA
:10238000B0FBF1F06421B0FBF1F000EBC00101EB18
:102390000010A7EB8000322101EB00106421B0FB9C
:1023A000F1F000F00F003044216888605BE0FEF738
:1023B00077FE00EBC00101EB001061688900B0FB03
:1023C000F1F6FEF76DFE00EBC00101EB0010616855
:1023D0008900B0FBF1F06421B0FBF1F000EBC0012B
:1023E00001EB0010A6EB8000322101EB001064210C
:1023F000B0FBF1F000F0F006FEF752FE00EBC0017A
:1024000001EB001061688900B0FBF1F06421B0FBC2
:10241000F1F006EB0016FEF743FE00EBC00101EB06
:10242000001061688900B0FBF1F7FEF739FE00EBA0
:10243000C00101EB001061688900B0FBF1F064217C
:10244000B0FBF1F000EBC00101EB0010A7EB800046
:10245000322101EB00106421B0FBF1F000F00F001D
:10246000304421688860BDE8F081000000380140F8
:10247000014691F8390021282CD18868B0F5805F99
:102480000FD10A6A1088C0F308000B685860086909
:1024900018B9086A801C086209E0086A401C0862D2
:1024A00005E00B6A581C086218780B685860C88CE5
:1024B000401E80B2C88458B90868C06820F0800007
:1024C0000B68D8600868C06840F040000B68D860AE
:1024D000002070470220FCE72DE9F04104460D463C
:1024E00017469846069E21E0701CF8B12EB1FEF703
:1024F000FFFBA0EB0800B04218D92068C06820F4A8
:10250000D0702168C8602068406920F0010021680F
:102510004861202084F8390084F83A0000BF002088
:1025200084F8380000BF0320BDE8F081206800680F
:102530002840A84201D1012000E00020B842D3D0B9
:102540000020F1E710B50248FFF76AF910BD00005E
:102550002400002038B51448FFF762F912480068DB
:10256000124988421FD1104800680068C0F300106B
:10257000C8B100BF002000900B48006800680090C0
:10258000094800684068009000BF00BF0648FFF798
:1025900012F9074800684468C4F11400054908703E
:1025A00001200549087038BD640000200048004043
:1025B000A4000020050000200400002000BFFEE76A
:1025C00000BFFEE70FB4054B10B503A9044A0298FB
:1025D00000F018F810BC5DF814FB0000C5280008D6
:1025E0002000002002E008C8121F08C1002AFAD10A
:1025F00070477047002001E001C1121F002AFBD183
:10260000704700002DE9FF4F8DB09B460F460446F2
:10261000002606E025280BD05A460F999047641CE7
:10262000761C20780028F5D111B03046BDE8F08F37
:102630000025A8460122984900E0054314F8013F0F
:10264000203B02FA03F00842F7D120782E2817D158
:1026500014F8010F45F004052A280ED06FF02F0260
:102660002078A0F1300109290AD808EB880102EB93
:10267000410100EB0108641CF2E757F8048B641C6D
:1026800020786C280DD004DC4C2812D06A2811D197
:1026900004E074280DD07A280CD10AE045F4001526
:1026A00007E0617845F48015814202D1641C05F58C
:1026B0008015641C2278692A45D008DC002AB3D032
:1026C000582A69D0632A10D0642A08D13BE0702AC6
:1026D00067D0732A13D0752A5CD0782A5CD0104654
:1026E0005A460F999047761CD3E017F8040B8DF8E3
:1026F000000000208DF80100E946012003E057F8B2
:10270000049B4FF0FF3069074FF0000501D40AE049
:102710006D1C45450DDA8542FADB19F805100029D4
:10272000F6D106E06D1C8542FCDB19F80510002986
:10273000F8D12E4404E019F8010B5A460F9990473E
:102740006D1EF8D2A5E00A200021CDE90801C5F3ED
:10275000025002280DD001CFC117031E71F10003F2
:102760000DDA4FF0000CD0EB0C006CEB01012D23C7
:1027700008E0FF1D27F00707F7E80201EDE72B054A
:1027800004D52B238DF8283001233BE0EB0739D00B
:102790002023F7E70A2000E010200021CDE90801FE
:1027A00007E01020002145F00405CDE908014FF0B5
:1027B0000808C5F3025002280FD001CF00214FF0C6
:1027C000000A2B071FD5702A0DD0DDE908C38CF055
:1027D000100C5CEA030C0CD015E0FF1D27F0070776
:1027E000F7E80201EBE740228DF828204FF0010ABC
:1027F0000BE050EA010306D030238DF828308DF825
:10280000292002239A46582A04D024A20DF1200937
:102810000B9209E026A2F9E7DDE90823FDF7B4FCF5
:102820000B9B9B5C09F8013D50EA0102F4D1ADEB32
:10283000090020300890680701D44FF0010808997A
:10284000884502DDA8EB010000E00020804600255D
:1028500006E00AA85A46405D0F9990476D1C761C09
:102860005545F6DB04E030205A460F999047761C18
:10287000B8F10001A8F10108F5DC05E019F8010B39
:102880005A460F999047761C0899481E08900029CF
:10289000F4DC641CC5E60000092801003031323345
:1028A000343536373839616263646566000000008C
:1028B0003031323334353637383941424344454676
:1028C0000000000070B504460D4605490C704FF439
:1028D0007A7301220348FFF7B1F9204670BD00006A
:1028E000000000202400002008B500250026FEF787
:1028F00011FAFFF759FBFFF781FAFFF75DFAFFF7CF
:10290000E7FAFFF7BFFA6BA0FFF75CFE002404E0D4
:1029100000206A490855601C84B20A2CF8DB0122A9
:10292000D1036748FEF7DEF90520FEF739F80A22E1
:1029300062496448FFF7EEF90520FEF731F80022FE
:102940004FF400415E48FEF7CDF9FEF7D1F9054698
:10295000AEE05D48007801284AD1FEF7C9F9054686
:102960005AA0FFF72FFE002406E05B48015D5BA044
:10297000FFF728FE601C84B2594800788442F4DBDB
:102980005848018858A0FFF71DFE002054490870E0
:102990004D4908705048FDF75BFC48494E48FDF72B
:1029A00098FC48480068C06820F004004549096860
:1029B000C8600122D1034248FEF794F96420FDF774
:1029C000EFFF06223D493F48FFF7A4F96420FDF7D9
:1029D000E7FF00224FF400413948FEF783F93948F8
:1029E0000068C06840F0040036490968C86037E0F4
:1029F000FEF77EF9401B41F28831884230D9FEF75C
:102A000077F90546002403E02C490C55601C84B27C
:102A1000B442F9DB2B480068C06820F00400294963
:102A20000968C8600122D1032548FEF75BF90A2036
:102A3000FDF7B6FF062221492248FFF76BF9052072
:102A4000FDF7AEFF00224FF400411D48FEF74AF9A2
:102A50001C480068C06840F004001A490968C86052
:102A600014221D491748FFF785F8164800680068CA
:102A7000C0F3002020B16FF480701249096808602B
:102A8000104800680068C0F3C00088B16FF02000F3
:102A90000C490968086000BF0020009009480068E0
:102AA00000680090074800684068009000BF00BFC1
:102AB0004FE7000048656C6C0D0A000040010020E3
:102AC000000C014064000020040000205265637681
:102AD00020446174613A00002C0100202578200018
:102AE00005000020060000202C096572726F725FDD
:102AF000636F756E74203D2025640D0A0000000090
:102B00000246002000BF06E0C0F10303DB0022FA0A
:102B100003F30B54401C0428F6DB704701460020E9
:102B20000A7840EA02624B7842EA03428B7842EA32
:102B30000322CB7842EA0300704700000000000047
:102B4000000001020304060708090000000001025A
:102B500003040000742B0008000000202400000083
:102B6000E4250008982B000824000020340500000C
:102B7000F42500080000000000000000FFFFFFFF38
:102B80000000000000000000100000000100000034
:082B900000A24A04000000004D
:04000005080001519D
:00000001FF
